:020000040800F2
:10000000D8080020E5010008832400081121000819
:10001000812400080F0700084528000800000000A0
:10002000000000000000000000000000872400081D
:100030001707000800000000852400088924000834
:10004000FF010008FF010008FF010008FF01000890
:10005000FF010008FF010008FF010008FF01000880
:1000600019070008FF010008FF010008FF01000850
:10007000FF01000811070008130700081507000812
:10008000FF010008FF010008FF010008FF01000850
:1000900039280008FF010008FF010008FF010008DF
:1000A000FF010008FF010008FF010008FF01000830
:1000B000FF010008FF010008FF010008FF01000820
:1000C000FF010008FF010008FF010008FF01000810
:1000D000FF01000815280008212800082D28000825
:1000E000FF010008FF010008FF010008FF010008F0
:1000F000FF010008FF010008FF010008FF010008E0
:10010000FF010008FF010008FF010008FF010008CF
:10011000FF010008BD250008092500081525000875
:10012000FF010008FF010008FF010008FF010008AF
:1001300000F002F800F042F80AA090E8000C8244B7
:100140008344AAF10107DA4501D100F037F8AFF294
:10015000090EBAE80F0013F0010F18BFFB1A43F0A5
:10016000010318474C2E00006C2E0000103A24BFEB
:1001700078C878C1FAD8520724BF30C830C144BF0C
:1001800004680C607047000000230024002500264E
:10019000103A28BF78C1FBD8520728BF30C148BFEA
:1001A0000B607047752900F07180782900F0AA80F3
:1001B000002070471FB51FBD10B510BD00F06EFACE
:1001C0001146FFF7F7FF02F059FD00F08CFA03B477
:1001D000FFF7F2FF03BC00F093FA000080F30888F9
:1001E000704700000948804709480047FEE7FEE7DE
:1001F000FEE7FEE7FEE7FEE7FEE7FEE7FEE7FEE7D7
:1002000004480549054A064B7047000007250008C9
:1002100031010008D8020020D8080020D8040020AE
:10022000D80400200FB4044910B503AA029800F0C6
:10023000E5F910BC5DF814FB0000002070B5044621
:1002400085690068C10601D5302600E02026C00778
:1002500007D070BDD4E9012130469047206A401C88
:1002600020626D1EF6D570BD70B5044685690078B4
:10027000C00707D170BDD4E9012120209047206A32
:10028000401C20626D1EF6D570BD00002DE9F041C6
:100290000646002410687529314616A510D0AFF324
:1002A0000080002802DA404213A507E031688A077F
:1002B00001D512A502E0490704D511A5012401E0EA
:1002C000AFF3008000210A2206F1240709E0B0FB09
:1002D000F2FCB0FBF2F302FB1C00303078541846FD
:1002E000491C0028F3D123462A463046BDE8F04198
:1002F00000F02AB9000000002D0000002B000000D3
:100300002000000070B504460D4621461068AFF38A
:1003100000802188090502D50F4A7A4402E00E4A7E
:100320007A440E32002104F1240305E000F00F06A8
:100330000009965D5E54491C0028F7D120780023FF
:10034000000704D5702D02D009B1022311322046D6
:10035000BDE8704000F0F8B8582C00002DE9F05FBF
:10036000894604464FF0000ADFF874B1FB44C0F838
:1003700020A02046E1688847002874D0252806D0B0
:10038000D4E901219047206A401C2062F1E7002651
:100390005F462046E16888472028054607DB312D67
:1003A00005D2781910F8200C08B10643F1E7B00720
:1003B00001D526F00406C4F81CA00027C4F818A034
:1003C0002A2D09D0284602F04EFA38B304EB8708EC
:1003D000303DC8F8185019E059F8041B204604EBCA
:1003E00087029161E1688847012F054618D1E069CD
:1003F000002820DA26F020061DE0D8F8180000EBCF
:10040000800005EB40003038C8F818002046E1684D
:100410008847054602F027FA0028EED1012F0AD0BE
:100420002E2D08D12046E16888477F1C0546022F03
:1004300046F02006C4DBA069002803DA404246F0FB
:100440000106A061F00701D026F010066C2D0BD03C
:10045000682D09D04C2D39D06A2D35D0742D35D06A
:100460007A2D33D016E038E0E1682F4620468847E1
:10047000B842054609D16C2F26D04FF48060E16860
:10048000064320468847054604E06C2F1AD04FF4F7
:10049000807006430DB3A5F14100192802D820351C
:1004A00046F400664A462946204626604E46FFF737
:1004B00079FE80B101280BD0F61D26F0070000F16F
:1004C000080956E74020E4E78020D8E70020D6E777
:1004D00006F104094DE7284652E7206ABDE8F09F7F
:1004E0002E2C000002F0FF0343EA032242EA0242FC
:1004F00000F098B84FF0000200B5134694469646B7
:10050000203922BFA0E80C50A0E80C50B1F1200126
:10051000BFF4F7AF090728BFA0E80C5048BF0CC0D4
:100520005DF804EB890028BF40F8042B08BF704732
:1005300048BF20F8022B11F0804F18BF00F8012BA4
:1005400070477047704770472DE9F0470D46994650
:100550009246044600F124080168880604D5E06943
:1005600021F01001216000E00120A84201DD471BBD
:1005700000E00027A1697A1902EB0900081AA061BE
:100580002078C00602D42046FFF758FE002608E077
:10059000D4E901211AF806009047206A401C761C15
:1005A00020624E45F4DB2078C0060AD52046FFF7CE
:1005B00045FE06E0D4E9012130209047206A401C26
:1005C0002062381EA7F10107F4DC07E0D4E901211D
:1005D00018F805009047206A401C2062281EA5F1EB
:1005E0000105F3DC2046FFF73FFE2078000602D528
:1005F0000220BDE8F0870120FBE70000074B70B543
:100600000D467B4400F033F80446284600F042F8DB
:1006100010B14FF0FF3070BD204670BDD7250000EF
:100620004FF000020429C0F0128010F0030C3FF4D8
:1006300063AFCCF1040CBCF1020F18BF00F8012B22
:10064000A8BF20F8022BA1EB0C01FFF755BF5FEA12
:10065000C17C24BF00F8012B00F8012B48BF00F833
:10066000012B704701694A1C02610878704700B588
:100670008FB0CDE901310021059105497944CDE9DB
:10068000031011466846FFF769FE0FB000BD000079
:10069000E5FFFFFF007B00F080007047754600F02B
:1006A0002BF8AE4605006946534620F00700854604
:1006B00018B020B5FFF7A4FDBDE820404FF00006BC
:1006C0004FF000074FF000084FF0000B21F007013A
:1006D000AC46ACE8C009ACE8C009ACE8C009ACE87D
:1006E000C0098D46704710B50446AFF30080204620
:1006F000BDE81040FFF76BBD004870477402002052
:1007000001491820ABBEFEE7260002007047FEE755
:100710007047704770477047042000F089BB72B67D
:10072000FEE710B5044602F0E3F9022002F0D8F922
:10073000204602F0A3F9BDE8104002F097B970B569
:100740000C46054602F0D4F9022002F0C9F9214610
:10075000284602F0FDF9BDE8704002F087B92DE9A6
:10076000F04115460E46074602F0C2F9022002F09B
:10077000B7F9002406E056F8241007EB840002F0D5
:10078000E7F9641CAC42F6D3BDE8F04102F06EB963
:1007900090F82020012A07D0022A05D0416A41F4AE
:1007A0008021416201207047006842690A4342612A
:1007B0000020704710B590F820300268012B07D058
:1007C000022B05D0416A41F480214162012010BD15
:1007D000D2F8000240F00100C2F80002087D00F0EB
:1007E0001F0301209840D2F81C328343C2F81C3208
:1007F000CB69B3B9D2F80C328343C2F80C328C897E
:100800004B6864F31F434C6902EBC404C4F84032E4
:100810000C890B6864F31F434C6902EBC404C4F8F1
:100820004432CB69012B16D1D2F80C320343C2F803
:100830000C320C884B6864F31F434C6902EBC40410
:10084000C4F840320C89CB6864F31F434C6902EB57
:10085000C404C4F844328B69002BD2F804320FD0A0
:1008600053EA0003C2F804320B69002BD2F81432A9
:1008700008D00343C2F81432096A012904D008E001
:100880008343EFE78343F5E7D2F81C120143C2F834
:100890001C12D2F8000220F00100C2F80002002071
:1008A00010BD70472DE9F05F0546006800244669D9
:1008B000D0F804908768D0F80CB0D0F810A0D0F829
:1008C0001880F10748D0F90714D001218160B807DA
:1008D00003D5284600F0E9F90CE0780702D54FF47B
:1008E000006407E0380702D54FF4805402E0284640
:1008F00000F0DAF9F80516D529684FF480708860A1
:10090000B80503D5284600F0D2F90CE0780502D5E9
:1009100044F4005407E0380502D544F4804402E072
:10092000284600F0C3F9F80316D529684FF4803043
:100930008860B80303D5284600F0BBF90CE07803C3
:1009400002D544F4004407E0380302D544F480346F
:1009500002E0284600F0ACF9300707D55FEACB602B
:1009600004D52968102044F40074C86070074FF063
:10097000080707D55FEA0B7004D52868C7602846CA
:1009800000F060F9B00706D52868C068800702D07B
:10099000284600F058F9700607D55FEACA6004D50A
:1009A0002968102044F480640861B00607D55FEA26
:1009B0000A7004D528680761284600F045F9F0065A
:1009C00006D528680069800702D0284600F03DF966
:1009D000B00308D55FEAC96005D5296810204860D2
:1009E000284600F033F9F00307D55FEA097004D513
:1009F00028684760284600F05DF9300446D55FEA74
:100A0000497040D5F00504D55FEAC87001D044F0C4
:100A10000104B00504D55FEA887001D544F00204F2
:100A2000700504D55FEA487001D544F00404300530
:100A300029D518F0700F26D008F07000402815D086
:100A400006DC102809D020280AD0302816D10AE068
:100A500050280ED0602811D10EE044F008040DE0BB
:100A600044F010040AE044F0200407E044F040049D
:100A700004E044F0800401E044F480742868816953
:100A800021F070018161296804204860002C05D0A4
:100A9000686A204368622846FFF703FFBDE8F09FBD
:100AA00070B5040003D094F8200010B109E00120D3
:100AB00070BD204600F088F82068016821F002012E
:100AC00001602068016841F00101016000F0BEFA98
:100AD0000546052605E000BF00F0B8FA401B0A28CD
:100AE00011D820684068C007F6D02068016821F05E
:100AF0000201016000F0AAFA05460BE000F0A6FA38
:100B0000401B0A2806D9606A40F40030606284F80D
:100B10002060CCE7206840688007EFD4207E012861
:100B2000206801683DD021F080010160607E0128CD
:100B30002068016838D021F040010160A07E0128C2
:100B40002068016833D021F020010160E07E012897
:100B5000206801682ED041F010010160207F01283B
:100B60002068016829D021F008010160607F012818
:100B70002068016824D021F004010160D4E9020159
:100B80000843D4E90412114308436168491E08432D
:100B90002168C86100206062012084F820000020E4
:100BA00070BD41F08001C0E741F04001C5E741F070
:100BB0002001CAE721F01001CFE741F00801D4E796
:100BC00041F00401D9E7000010B586B00021009182
:100BD0000191029103910068174988422AD1174870
:100BE000C16941F00071C161C16901F000710491F6
:100BF000816941F0040181618069114C00F00400B9
:100C000004904FF4006000906946204600F01CF903
:100C1000A014009002200190032003906946204612
:100C200000F012F900221146142000F06FFB14208E
:100C300000F05EFB06B010BD0064004000100240F2
:100C400000080140704770477047704770470000C8
:100C500070B5044690F82000012804D0606A40F482
:100C60000020606218E0022084F8200020680168FB
:100C700021F00101016000F0E9F905460EE000BF36
:100C800000F0E4F9401B0A2808D9606A40F40030FB
:100C90006062052084F82000012070BD2068406853
:100CA000C007EDD1606270BD7047704770477047F4
:100CB00070477047704710B590F821100022022944
:100CC00005D00421816380F82020012010BD016837
:100CD0000B6823F00E030B6001680B6823F001031F
:100CE0000B6090F84030C46B012101FA03F363609C
:100CF00080F8211080F82020104610BD2DE9F05F0B
:100D000090F821100024022903D0042181630124DA
:100D100085E001680A6822F00E020A6001680A682C
:100D200022F001020A603F4E3E4FB215DFF8F4C0D8
:100D3000DFF8F090DFF8ECA0DFF8E8B0DFF8E4E0EF
:100D40000168783F13011502ACF1640CA9F1500958
:100D5000AAF13C0AABF1280BAEF1140E4FF4801847
:100D6000B14227D9B9420ED0614512D049451DD0B4
:100D7000514518D0594518D0714501D1424615E06A
:100D8000294EB14201D1012210E0274E1436B14262
:100D900001D110220AE0244E2836B14206D0224A60
:100DA0003C32914201D11A4600E02A461E49091FF1
:100DB0000A602BE0B94213D0614517D0494522D0D3
:100DC00051451DD059451DD0714501D142461AE00B
:100DD000B14202D14FF0807215E0134EB14201D101
:100DE000012210E0104E1436B14201D110220AE067
:100DF0000D4E2836B14206D00B4A3C32914201D109
:100E00001A4600E02A46074980394A60012180F8E5
:100E10002110002180F82010416B01B18847204645
:100E2000BDE8F09F800002400804024070470000C7
:100E3000044910B50A68024202D00860FFF7F6FFC5
:100E400010BD0000140401402DE9F84FDFF8C891EF
:100E50000024A9F1040B23460F2709F1040AABF182
:100E6000040ED1E00125A54006EA0502AA4276D18A
:100E7000DFF8A8C14E68A6EB0C0866452BD00DDC48
:100E8000032E34D005DC36B3012E19D0022E2FD11B
:100E90001BE0112E16D0122E2AD119E0B8F5881FAA
:100EA00019D006DCB8F5803F15D0B8F5801F1FD1EA
:100EB00011E0B8F5001F0ED0B8F5041F18D10AE0F4
:100EC000CB6815E0CB681B1D12E0CB6808330FE040
:100ED000CB680C330CE08B682BB1012B4FF008036F
:100EE00003D0456104E0042302E0056100E0002333
:100EF000FF2A01D8064601E000F104064FEA840506
:100F000001D9A5F12005D6F8008007FA05FC28EAEA
:100F10000C0803FA05F548EA0508C6F800804D6894
:100F2000ED0070D53E4DAE6946F00106AE61AD698B
:100F300024F0030605F0010500953A4D06EB050C7B
:100F4000DCF80850A607360F07FA06F825EA080568
:100F5000DFF8D480404503D14FF0000825E052E08F
:100F6000DFF8C880404502D14FF001081DE0DFF8EE
:100F7000C080404502D14FF0020816E0DFF8B4808F
:100F8000404502D14FF003080FE0DFF8AC80404548
:100F900002D14FF0040808E0DFF8A080404502D1FC
:100FA0004FF0050801E04FF0060808FA06F848EA95
:100FB0000508CCF808804D68D9F80060ED024D4670
:100FC00001D5164300E096432E604D68DAF80060C4
:100FD000AD02554601D5164300E096432E604D689C
:100FE000DBF80060AD035D4601D5164300E0964393
:100FF0002E604D68DEF80060ED03754601D516439E
:1010000000E096432E60641C0A681646E2407FF4B6
:1010100029AFBDE8F88F000008040140000011105E
:10102000001002400000014000080140000C014097
:10103000001001400014014000180140001C014054
:101040000AB1016170470904FBE7000001488068AC
:10105000704700000400002070B5040025D094F80B
:101060003D00002520B984F83C50204600F0B8F837
:10107000242084F83D002068016821F0010101600E
:101080002068016841F4004101602068016821F492
:101090000041016000F078FA4D4A6168914201D840
:1010A0004C4900E04C49884201D2012070BD4B49B7
:1010B0002368B0FBF1F15E6826F03F060E435E60E8
:1010C0006368934206D94FF4967359434FF47A7389
:1010D000B1FBF3F12368491C1E6A26F03F06314339
:1010E00019626168914210D84900401EB0FBF1F2CC
:1010F000521CC2F30B02042A01D2042022E0B0FBEE
:10110000F1F0401CC0F30B001CE0A268F2B301EB4D
:10111000C10303EB0116431EB3FBF6F35B1C43F460
:1011200080431B0549D092B301EBC10202EB0111D0
:10113000401EB0FBF1F0401CC0F30B0040F48040B7
:1011400040F400402168CA694CF6FF739A4310438B
:10115000C861D4E9071001432068026822F0C00288
:1011600011430160D4E9030101432068826848F219
:10117000FF339A4311438160D4E905010843216894
:10118000CA6822F0FF021043C86001E00EE016E0DA
:101190002068016841F0010101602564202084F885
:1011A0003D00256384F83E50002070BD01EB4106F0
:1011B000431EB3FBF6F35B1CB3E70120C2E701EB70
:1011C0004101401EB0FBF1F0401CC0F30B00B7E73B
:1011D000A086010080841E0000093D0040420F00EF
:1011E00010B586B000210091019102910391006831
:1011F000104988421BD1104CA06940F00800A06142
:10120000A069694600F0080004904FF44060009027
:1012100012200190032003900848FFF715FEE069B3
:1012200040F48000E061E06900F48000049006B0C2
:1012300010BD00000058004000100240000C0140AA
:1012400002488168027811448160704704000020E0
:10125000074810B5016841F010010160032000F05B
:1012600075F80F2000F006F800F024F8002010BDFB
:101270000020024070B50D4D04464FF47A71287875
:10128000B1FBF0F00A490968B1FBF0F000F052FB45
:1012900048B9102C07D200222146501E00F036F823
:1012A00000206C6070BD012070BD000004000020B3
:1012B000100000200C4808B5816941F001018161EE
:1012C000816901F001010091C16941F08051C16162
:1012D000C06900F0805000900448416821F0E0614E
:1012E00041F00071416008BD001002400000014063
:1012F000002809DB00F01F02012191404009800015
:1013000000F1E020C0F8001170470000F0B40E4B6F
:101310001B680C46C3F30223C3F10705042D00D953
:101320000425191D072901D2002300E0DB1E012638
:1013300006FA05F1491E214099409E40761E16404E
:101340003143F0BC01F07FBA0CED00E0064900F03B
:10135000070208684FF6FF03184040EA0220034ADC
:1013600010430860704700000CED00E00000FA0533
:101370002DE9F84305460078354CC00754D0E069A4
:101380000026C00008D4E06940F08050E061E069C8
:10139000012600F0805000902E480168C90512D443
:1013A0000168804641F480710160FFF74FFE0746F7
:1013B00005E000BFFFF74AFEC01B642823D8D8F819
:1013C0000000C005F6D5206A10F4407021D0A9882D
:1013D00001F4407181421CD0206A1F49012220F48F
:1013E00040700A6000220A602062C00711D0FFF737
:1013F0002DFE074641F2883808E000BFFFF726FEC1
:10140000C11B414502D90320BDE8F883206A80074B
:10141000F4D5206A696820F44070084320621EB148
:10142000E06920F08050E0612878800705D5606889
:10143000A96820F44040084360602878C00605D5BC
:101440006068696920F48000084360600020DBE781
:101450000010024000700040400442422DE9F04775
:101460000F46050061D0434E306800F00700B842D7
:1014700009D2306820F0070038433060306800F04F
:101480000700B84251D128683B4C810712D540076C
:1014900003D5606840F4E06060602878000703D5F9
:1014A000606840F4605060606068A96820F0F000F7
:1014B000084360602878C00728D06868012810D0E9
:1014C0002168022810D0890700292EDA616821F0EE
:1014D000030101436160FFF7B9FD804641F288399D
:1014E0000DE021688903EFE78901EDE7FFF7AEFD25
:1014F000A0EB0801494502D90320BDE8F0876068E8
:10150000696800F00C00B0EB810FEFD1306800F09B
:101510000700B8420BD9306820F00700384330602C
:10152000306800F00700B84201D00120E5E72878D4
:10153000400705D56068E96820F4E0600843606012
:101540002878000706D56068296920F4605040EAD1
:10155000C100606000F038F86168084AC1F3031107
:10156000515CC8400649086006480068FFF782FEE3
:101570000020C2E700200240001002405E2F000859
:101580001000002008000020044805490068496850
:10159000044AC1F30221515CC8407047100000208A
:1015A000001002406E2F0008044805490068496891
:1015B000044AC1F3C221515CC840704710000020AA
:1015C000001002406E2F00080E4A51680E4801F0CC
:1015D0000C03042B11D0082B0FD10C48C1F383430B
:1015E000C903C05C0AD55168084AC1F34041921E44
:1015F000515C054A5043B0FBF1F070470449484341
:10160000704700000010024000127A004E2F0008C0
:1016100000093D002DE9F84F040070D02078C04D3E
:10162000C00749D06868C0F38100012807D0686806
:10163000C0F38100022809D16868C00306D5286874
:10164000800339D560680028E7D035E06068B0F5E0
:10165000803F0BD010B1B0F5A02F11D0286820F436
:1016600080302860286820F4802002E0286840F458
:1016700080302860606890B1FFF7E8FC06460AE019
:10168000286840F480202860F0E700BFFFF7DEFC08
:10169000801B642873D828688003F7D50CE0FFF717
:1016A000D5FC064605E000BFFFF7D0FC801B642890
:1016B000F0D828688003F7D420789A4E80074FF03E
:1016C00001094FF0000839D5686810F00C0F07D0F9
:1016D0006868C0F38100022809D16868C00306D495
:1016E0002868800714D52069012808D110E02069F6
:1016F000B0B1C6F80090FFF7A9FC074605E00AE183
:10170000FFF7A4FCC01B0228C4D828688007F7D5BF
:101710002868616920F0F80040EAC10028600DE007
:10172000C6F80080FFF792FC074604E0FFF78EFC46
:10173000C01B022823D828688007F7D42078000728
:101740002CD57948A169D9B1C0F80090FFF77EFC8B
:10175000074604E0FFF77AFCC01B02280FD8686A2E
:101760008007F7D571484FF4FA510068B0FBF1F0EB
:10177000009000BF0098411E0091FAD20EE080E078
:10178000C0F80080FFF762FC074604E0FFF75EFC4C
:10179000C01B022875D8686A8007F7D420784007F4
:1017A00060D5E8690027C00008D4E86940F080509F
:1017B000E861E869012700F0805000905C4801680A
:1017C000C90513D40168834641F480710160FFF7B5
:1017D0003DFC824606E000BFFFF738FCA0EB0A00A4
:1017E00064284ED8DBF80000C005F5D5E068012874
:1017F0000AD008B1052813D0286A20F00100286219
:10180000286A20F0040002E0286A40F00100286203
:10181000E06841F2883B98B1FFF718FC82460BE084
:10182000286A40F004002862EEE700BFFFF70EFCD4
:10183000A0EB0A0159455AD8286A8007F6D50CE072
:10184000FFF704FC824605E0FFF700FCA0EB0A016D
:1018500059454CD8286A8007F6D41FB1E86920F0B2
:101860008050E861E06988B36968C1F381010229A9
:1018700044D00228C6F8608004D0FFF7E7FB044696
:1018800038E034E0FFF7E2FB074604E0FFF7DEFB59
:10189000C01B02282BD828688001F7D4206AB0F535
:1018A000803F05D16868A16820F400300843686073
:1018B000D4E908010843696821F474110843686099
:1018C000C6F86090FFF7C2FB044606E025E000BFC3
:1018D000FFF7BCFB001B022809D828688001F7D558
:1018E0001BE000BFFFF7B2FB001B022802D9032058
:1018F000BDE8F88F28688001F4D40EE00128F7D005
:101900006868226A00F48031914204D1616A00F46F
:101910007010884201D00120EAE70020E8E70000CB
:1019200000100240000042428004424210000020A9
:101930000070004010B5401EB0F1807F01D301203F
:1019400010BD4FF0E02460610F21601700F07BFFB5
:101950000020A06107202061002010BD7047704763
:1019600070B590F83C20012A2CD0012480F83C402E
:10197000022280F83D2003685A689D6822F07006B4
:101980000A6832435A60104B02689A420ED00F4BDD
:101990009A420BD0B2F1804F08D00D4B9A4205D03D
:1019A0000C4B9A4202D00C4B9A4204D1496825F064
:1019B00080031943916080F83D40002180F83C107D
:1019C000084670BD022070BD002C0140003401406B
:1019D0000004004000080040000C004010B5040066
:1019E00003D094F83D0010B107E0012010BD0020A5
:1019F00084F83C00204600F01FF8022084F83D00E7
:101A0000211D206800F08CFD012084F8460084F838
:101A10003E0084F83F0084F8400084F8410084F8D8
:101A2000420084F8430084F8440084F8450084F8B8
:101A30003D00002010BD000038B50546006815497E
:101A4000154C88420FD1E06940F01000E061E06978
:101A5000002200F01000009011463620FFF756FCDF
:101A60003620FFF745FC0D492868884211D1E0690E
:101A700040F02000E061E069002200F020000090CA
:101A800011463720FFF742FCBDE838403720FFF70A
:101A90002FBC38BD00100040001002400014004070
:101AA00070472DE9F04104460068C66805694FF0AB
:101AB0000007A90713D5B10711D5F91E016101204F
:101AC0002077206880698007204602D0FFF7E8FF72
:101AD00004E000F07EF8204600F07CF827776807E5
:101AE00016D5700714D521686FF004000861022034
:101AF00020772068806910F4407F204602D0FFF7ED
:101B0000CFFF04E000F065F8204600F063F8277787
:101B1000280715D5300713D521686FF00800086134
:101B2000042020772068C0698007204602D0FFF794
:101B3000B7FF04E000F04DF8204600F04BF827779F
:101B4000E80616D5F00614D521686FF0100008617C
:101B5000082020772068C06910F4407F204602D01A
:101B6000FFF79EFF04E000F034F8204600F032F862
:101B70002777E80708D0F00706D021686FF001004A
:101B80000861204600F027F8280608D5300606D55B
:101B900021686FF0800008612046FFF7DFFE6806CD
:101BA00008D5700606D521686FF040000861204610
:101BB00000F012F8A8060AD5B00608D521686FF023
:101BC000200008612046BDE8F041FFF7C8BEBDE82F
:101BD000F08170477047704770477047704700004A
:101BE000F8B5016804460868CA684B6910F00F0F21
:101BF0004FF0000559D003F0010602F49077374307
:101C000065D0C10705D0D10503D5616C41F0010154
:101C10006164410705D5D90703D0616C41F0020129
:101C20006164810705D5D90703D0616C41F00401D7
:101C30006164010707D502F02001314303D0616CD4
:101C400041F008016164616C00293AD0800604D536
:101C5000900602D5204600F0E6FC20684069616CE1
:101C6000C0F38010090700D460B3204600F0B4FC34
:101C700020684069400621D52068143050E8001FD4
:101C800021F0400140E80012002AF5D1E06BA8B134
:101C90006D494163E06BFFF731F8002811D0E06B2C
:101CA000416B01B0BDE8F040084783060FD59306AD
:101CB0000DD52046BDE8F84000F0B5BC2046FFF742
:101CC0008DFFF8BD2046FFF789FF6564F8BD266BE0
:101CD0002023012E7CD1C6067AD5D60678D5086891
:101CE0004868009048694FF00206400640D5E16B15
:101CF000086840680004000CE8D0A28D8242E5D953
:101D0000E085886920282DD020680C3050E8001F1D
:101D100021F4807140E80012002AF5D120681430C7
:101D200050E8001F21F0010140E80012002AF5D11F
:101D30002068143050E8001F21F0400140E80012F4
:101D4000002AF5D184F84230256320680C3050E831
:101D5000001F21F0100140E80012002AF5D1E06BCD
:101D6000FEF7A9FF6663A08DE18D401A81B22AE0DB
:101D7000A08DE18D401A81B2E08D0028A6D0002907
:101D8000A4D022680C3252E8000F20F4907042E890
:101D90000007002FF5D12068143050E8002F22F002
:101DA000010240E80027002FF5D184F84230256376
:101DB00020680C3050E8002F22F0100240E8002389
:101DC000002BF5D166632046FFF707FFF8BDFFE75C
:101DD00005062BD5150629D594F841002128F5D103
:101DE000A068B0F5805F01D12069B0B1206A411CC4
:101DF0002162216800784860E08C401E0004000CDD
:101E0000E084E3D12068C16821F08001C1602068CE
:101E1000C16841F04001C160D8E7206A0088C0F382
:101E200008004860206A801C2062E5E74006CDD5A6
:101E30005006CBD5CA68204622F04002CA6084F81A
:101E4000413000F064F9C1E7C925000870B504000D
:101E500004D094F84100002510B106E0012070BDC7
:101E600084F84050204600F023F8242084F84100F4
:101E70002068C16821F40051C160204600F034FCA4
:101E80002068016921F4904101612068416921F0D5
:101E90002A0141612068C16841F40051C160656454
:101EA000202084F8410084F842006563002070BD62
:101EB000F0B585B000240094019402940394624D1F
:101EC000D0F800C0614802210322614B0426AC45D2
:101ED0002DD1C56945F48015C561C56905F4801526
:101EE0000495856945F010058561856905F0100543
:101EF0000495856945F0200585618069039200F0AD
:101F000020000490C802CDE9000169461846FEF79A
:101F10009BFFCDE9006469464E480294FEF794FFAA
:101F2000002201213520FFF7F1F935202AE04B4D41
:101F3000DFF824E12F15F44528D1836943F4804369
:101F40008361836903F480430493836943F004034A
:101F500083618069039200F0040004906815CDE964
:101F6000000169462846FEF76FFFCDE90074694617
:101F700028460294FEF768FF002211462520FFF74D
:101F8000C5F92520FFF7B4F905B0F0BDDFF8D0E0C2
:101F9000F44525D1C36943F40033C361C36903F435
:101FA00000330493836943F0040383618069CDE9BE
:101FB000006100F00400CDE9032069462846FEF7E1
:101FC00043FF0820CDE90004694628460294FEF745
:101FD0003BFF002211462620FFF798F92620D1E783
:101FE000204DAC45D0D1C56945F48025C561C56992
:101FF00005F480250495856945F0100585618069A3
:1020000000F0100004901848456825F0300545F0B0
:10201000E06545F010054560CDE900710392694621
:102020001D461846FEF710FF4FF40060CDE900048E
:10203000694628460294FEF707FF00221146272032
:10204000FFF764F927209DE7005000400010024090
:102050000010014000140140003801400008014018
:1020600000440040004800400000014070472DE956
:10207000F843044690F84100984616460D4620283D
:1020800002D00220BDE8F88385B17EB100206064F3
:10209000212084F84100FEF7D9FFA6848146E6841A
:1020A000A0682027B0F5805F02D003E00120E9E7B7
:1020B000206910B12E4600250EE000260CE080219C
:1020C000204600F06DFBA8B9C6B116F8010B2168D7
:1020D0004860E08C401EE084E08C4B464FF00002EC
:1020E000CDF800800028EAD14FF04001204600F0F2
:1020F00057FB40B184F841700320C3E735F8020B69
:10210000C0F30800E3E784F841700020BAE77047A5
:10211000FEE7000030B51C488BB01A49016006216B
:102120000024C0E901144FF4E021C0E903414FF459
:10213000001141610476012545768576C4760477E1
:102140004477FEF7ADFC08B1FEF7E9FA03940E20E0
:102150000494CDE90850CDE9064505940094019416
:10216000029469460848FEF725FB08B1FEF7D7FA46
:102170000548FEF76DFD02210348FEF709FB0BB091
:1021800030BD000000640040180200202DE9F04F2F
:1021900085B0002449480094019402940394816915
:1021A00041F020018161816901F020010491816980
:1021B00041F004018161816901F0040104918169A8
:1021C00041F008018161816901F008010491816990
:1021D00041F0100181618069DFF8E4A000F0100097
:1021E000049000224FF4A0715046FEF729FF4FF4EF
:1021F0000057002239465046FEF722FFDFF8C4B0F0
:102200004FF48C78002241465846FEF719FF41F200
:102210001829002249462C48FEF712FF0022082107
:102220005046FEF70DFF0125CDE9005469462648CA
:102230000294FEF709FE08200226CDE90005CDE94B
:10224000024669465046FEF7FFFD042000901F48F5
:10225000CDE9010569461C48FEF7F6FD4FF4A8706C
:10226000CDE90005CDE9024669465046FEF7ECFD92
:1022700000970396CDE9015469465046FEF7E4FD08
:10228000CDF800800396CDE9015469465846FEF723
:10229000DBFDCDF800900396CDE9015469460A486C
:1022A000FEF7D2FD002211460820FFF72FF8082084
:1022B000FFF71EF805B0BDE8F08F000000100240E7
:1022C0000010014000080140000C014000002110F6
:1022D0000D4810B50B4901600C49416000214FF4D5
:1022E00080428160C0E9031241618161C161016284
:1022F000FEF7B2FE002803D0BDE81040FEF70FBA8B
:1023000010BD00000058004034010020A0860100EC
:102310001CB500240F4800940D490194016041F65A
:102320001F41C0E9011442F20F71C1608021816137
:10233000FFF754FB08B1FEF7F2F90094694605482F
:102340000194FFF70DFB002801D0FEF7E8F91CBD52
:1023500000100040880100201CB500240F480094A4
:102360000D490194016041F61F41C0E90114632148
:10237000C16080218161FFF731FB08B1FEF7CFF921
:102380000094694605480194FFF7EAFA002801D055
:10239000FEF7C5F91CBD000000140040D00100206C
:1023A0000C4810B50A4901604FF4E1314160002149
:1023B00081600C22C160C0E904128161C161FFF734
:1023C00045FD002803D0BDE81040FEF7A8B910BDB8
:1023D00000500040140000200C4810B50A4901606C
:1023E0004FF4E1314160002181600C22C160C0E9FD
:1023F00004128161C161FFF729FD002803D0BDE807
:102400001040FEF78CB910BD00380140EC000020F0
:102410000C4810B50A4901604FF4E13141600021D8
:1024200081600C22C160C0E904128161C161FFF7C3
:102430000DFD002803D0BDE81040FEF770B910BDB7
:10244000004400405C0000200C4810B50A490160BF
:102450004FF4E1314160002181600C22C160C0E98C
:1024600004128161C161FFF7F1FC002803D0BDE8CF
:102470001040FEF754B910BD00480040A4000020F1
:10248000FEE7FEE770477047FEF7DABE30B595B05D
:1024900028216846FEF72EF814210AA8FEF72AF82C
:1024A00018210FA8FEF726F801210804CDE9001035
:1024B0000025029502240491CDE907404FF4E01075
:1024C00009906846FFF7A6F808B172B6FEE70AA9B8
:1024D0000F2081E831004FF48060CDE90D05022125
:1024E0000AA8FEF7BBFF08B172B6FEE74FF4004042
:1024F00011900F940FA8FEF73BFF002801D072B691
:10250000FEE715B030BD70470148FFF7CABA0000BA
:10251000880100200148FFF7C4BA0000D001002064
:10252000F0B50268204C214D214E224F224B4FF036
:10253000804CA04209D0984207D0604505D0A842FF
:1025400003D0B04201D0B84204D122F0700E4A68E4
:1025500042EA0E02A04209D0984207D0604505D059
:10256000A84203D0B04201D0B84203D122F4407552
:10257000CA682A434D6922F080022A4302608A68B1
:10258000C2620A688262A04201D0984201D1096900
:102590000163012141610169C90703D0016921F08B
:1025A00001010161F0BD0000002C01400004004069
:1025B00000080040000C0040003401400148FFF7D3
:1025C0000FBB00001400002010B5406A0021C18537
:1025D000C184FFF703FB10BD01680C3151E8002FE7
:1025E00022F4907241E80023002BF5D101681431E8
:1025F00051E8002F22F0010241E80023002BF5D121
:10260000016B012909D101680C3151E8002F22F03A
:10261000100241E80023002BF5D1202180F8421060
:1026200000210163704708B590F84210222901D0BB
:10263000022008BD82684FF480539A4201D101699B
:1026400021B1816A9A421BD04AB10AE00268816ACC
:102650005268C2F308020A80816A891C08E0026994
:1026600072B10268526802F07F020A70816A491CE6
:102670008162C18D491E0904090CC18503D01BE08C
:1026800002685268F1E70168CA6822F02002CA6055
:102690000168CA6822F48072CA6001684A6922F03F
:1026A00001024A61202180F8421000214163026B3F
:1026B000012A03D0FFF7DAFC002008BD016301689E
:1026C0000C3151E8002F22F0100241E80023002BCA
:1026D000F5D101680A68D20602D50A6849680091F6
:1026E000818DFFF77AFAE7E770B504460068016963
:1026F000E26821F44051114301612169A068084357
:10270000616908432168CA6841F20C639A43024335
:10271000CA6020684169A26921F440711143416196
:102720001E492068884202D1FEF73EFF01E0FEF715
:102730002BFF00EBC00101EB0012606864218000F8
:10274000B2FBF0F3B3FBF1F36FF018067343B2FB87
:10275000F0F5B2FBF0F605EB8305322303EB05152C
:10276000B5FBF1F5B6FBF1F605F0F00505EB061546
:10277000B2FBF0F6B2FBF0F0B0FBF1F06FF0180234
:10278000504306EB800003EB0010B0FBF1F0216832
:1027900000F00F002844886070BD00000038014040
:1027A0002DE9F843984617460D460446089E24E056
:1027B000701C22D0FEF74AFCA0EB0800B0421AD8E9
:1027C000CEB12068C168490717D5802D15D0402D9E
:1027D00013D00168C94309070FD401680025406878
:1027E00000902046FFF7F8FE0820606484F840500F
:1027F0000120BDE8F8830320FBE72068006835EA84
:10280000000004D00020B842D2D00020F1E701201F
:10281000F9E700000148FFF7E3B90000EC000020F1
:102820000148FFF7DDB900005C0000200148FFF718
:10283000D7B90000A40000200148FEF733B800001B
:1028400018020020FEE70907090E002804DB00F14A
:10285000E02080F80014704700F00F0000F1E02045
:1028600080F8141D704730380A2801D201207047C3
:102870000020704770B500F05DFB054601461F4A19
:102880001FA0FDF7CFFC2A4CB5F1AA3F11D0B5F13E
:10289000FF3F0CD02748C54201D127A013E000F02C
:1028A00049FBBDE8704001462DA0FDF7BBBC32A03E
:1028B00009E037A0FDF7B6FC4FF4E0323A49204674
:1028C00000F012FA39A0FDF7ADFC256862682946D0
:1028D0003DA0FDF7A7FC48480540B5F1005F03D0D7
:1028E00046A0FDF79FFCFEE7214650A0FDF79AFCAD
:1028F0002046BDE8704000F07DB90000FCFF0308F1
:102900000D0A426F6F746C6F61646572207265614D
:1029100064206D6F6465203D203078253038582064
:1029200028616464723D307825303858290D0A00DA
:10293000004000085655AAAA0D0A726573746F729A
:102940006520746F20666163746F72792070726F96
:102950006772616D2E2E2E2E2E2E0D0A00000000A5
:102960000D0A6572726F723A25582121212E2E2E82
:102970002E2E2E0D0A0000000D0A6E6F726D616C16
:102980002073746172742E2E2E2E2E2E0D0A0000CE
:102990000D0A7374617274207570646174652E2EF3
:1029A0002E2E2E2E0D0A0000004002083E207570CB
:1029B0006461746520737563636573732E2E2E2EA8
:1029C0002E2E0D0A000000000D0A41707020537475
:1029D00061636B205074723A203078253038582C5F
:1029E00020526573657420566563746F723A2030A7
:1029F00078253038580D0A000000FE2F0D0A455288
:102A0000524F523A20496E76616C6964207374614A
:102A1000636B20706F696E7465722120426F6F74F2
:102A20002068616C7465642E0D0A00000D0A4A75F9
:102A30006D70696E6720746F206170706C6963617E
:102A400074696F6E206174203078253038582E2ECE
:102A50002E0D0A0010B5002305E000BF50F82340FA
:102A600041F823405B1C9342F8D310BD0248016932
:102A700041F08001016170470020024070B50546B9
:102A800000F056F8002802DA4FF0FF3070BD134C0A
:102A9000E06840F03400E060206940F0020020610E
:102AA0006561206940F04000206100F041F8002895
:102AB00002DA6FF0010070BD206920F00200206191
:102AC000E068800603D5E06840F02000E060E06840
:102AD00010F01400EFD06FF0020070BD0020024033
:102AE00002490A6860F302020A607047002002404F
:102AF0000C4801690C4A0B060C4906D5426041603E
:102B000003691B0601D58817704703699B0507D425
:102B1000826081600069800502D46FF00100704717
:102B2000002070470020024023016745AB89EFCDAC
:102B300006494FF48030CA68D20701D0401EFAD14E
:102B4000C868C00701D04FF0FF3070470020024036
:102B5000F8B50D460646FFF7EBFF002802DA4FF006
:102B6000FF30F8BD1C4CE06840F03400E0602069A4
:102B700040F001002061BFF34F8F358000270097A0
:102B80000098401C00900A28FADBFFF7D1FF0028CC
:102B900006DA206920F0010020616FF00100F8BD25
:102BA000280C708000970098401C00900A28FADBDF
:102BB000FFF7BEFF0028206920F00100206102DA43
:102BC0006FF00200F8BD3068A84202D06FF0030039
:102BD000F8BD0020F8BD00000020024013B54FF4FE
:102BE0007A73012269460248FFF741FA00981CBD3A
:102BF000EC00002070B5016804460BA0FDF712FB45
:102C0000206813490840B0F1005F07D111A0FDF71B
:102C100009FB65682068FDF7E1FAA847BDE8704048
:102C200011A0FDF7FFBA00002A20285F5F494F205E
:102C300075696E7433325F74202A296170705F6128
:102C4000646472203D203078253038580D0A000029
:102C50000000FE2F737461636B206973206C6567DD
:102C6000616C0D0A00000000737461636B2069736E
:102C700020696C6C6567616C0D0A000010B5FEF789
:102C8000E7FAFFF703FCFFF78BFBFFF7C1FBFFF74A
:102C9000DBFBFFF7A1FBFFF779FAFFF719FBFFF763
:102CA00037FBFFF759FBFFF735FA0648016806A026
:102CB000FDF7B8FAFFF7DEFD09A0FDF7B3FA002033
:102CC00010BD00001000002053797374656D436FD0
:102CD0007265436C6F636B3A20256C750D0A0000BA
:102CE000686572650D0A00002DE9F04F8246ADF26D
:102CF000044D91460E4642A0FDF794FA4B4C4027F6
:102D000000252046FDF70DFD214649A0FDF78AFA72
:102D10006D1C04F50064BD42F3D34BA0FDF782FAAD
:102D200053A0FDF77FFA4D46B04657464FF4806BEF
:102D300047E05C46A54200D82C46E01C4FEA900ACA
:102D4000A608B100FF226846FDF7CCFB5246694653
:102D50004046FFF77FFEA00721D026B132466946E4
:102D60003846FDF7FCFC4FF0FF30CDF8000407EBD0
:102D70008602684600EB860604F003010DF58063C9
:102D8000002004E016F800C003F800C0401C884290
:102D9000F8D31046DDF80014FDF7D1FC04E032460C
:102DA00069463846FDF7DBFC2D1BA9EB05006421C5
:102DB0004843B0FBF9F2A0442744214632A0FDF776
:102DC00031FA002DB5D137A0FDF72CFA3BA0FDF765
:102DD00029FA454E3827002406EBC4252846FDF77E
:102DE000A0FC294641A0FDF71DFA641CBC42F3D3A8
:102DF00046A0FDF717FA0DF2044DBDE8F08F000074
:102E00003E20737461727420657261736520617015
:102E1000706C69636174696F6E20312073656374CF
:102E20006F722E2E2E2E2E2E0D0A0000004000084E
:102E3000457261736564207061676520617420303C
:102E400078253038580D0A003E2065726173652080
:102E50006170706C69636174696F6E203120737585
:102E600063636573732E2E2E2E2E2E0D0A00000026
:102E70003E20737461727420636F70792E2E2E2E33
:102E80002E2E0D0A00000000436F70696564202536
:102E900075206279746573202825752525290D0A0A
:102EA000000000003E20636F70792066696E6973D0
:102EB000682E2E2E2E2E2E0D0A0000003E2073743A
:102EC000617274206572617365206170706C6963F2
:102ED0006174696F6E203220736563746F722E2E79
:102EE0002E2E2E2E0D0A000000400208457261733E
:102EF000656420736F75726365207061676520611A
:102F000074203078253038580D0A00003E20657254
:102F1000617365206170706C69636174696F6E20A4
:102F20003220737563636573732E2E2E2E2E2E0D35
:102F30000A00000008B500200090012269460248FE
:102F4000FFF788FD009808BDFCFF0308010202039B
:102F50000405060708090A0B0C0D0E0F10100000DF
:102F60000000000000000102030406070809000039
:102F7000000001020304303132333435363738393A
:102F800041424344454640305800303132333435B5
:102F90003637383961626364656640307800040012
:102FA0000008000000000000000200010000100006
:102FB000D02F000800000020140000006C01000861
:102FC000E42F000814000020C40800008801000855
:102FD00000000000010000001000000000000000E0
:042FE00000127A0061
:0400000508000131BD
:00000001FF
