:020000040800F2
:10400000F026002051430008CD9900082D8F0008AC
:104010008D990008D95E000839A60008000000004C
:10402000000000000000000000000000B94200088D
:10403000E563000800000000FD420008DD9C000868
:104040006B4300086B4300086B4300086B43000898
:104050006B4300086B4300086B4300086B43000888
:10406000E76300086B4300086B4300086B430008DC
:104070006B4300086B4300086B4300086B43000868
:104080006B4300086B4300086B4300086B43000858
:104090002DA600086B4300086B4300086B43000823
:1040A0006B4300086B4300086B4300086B43000838
:1040B0006B4300086B430008E1A200086B43000853
:1040C0006B4300086B4300086B4300086B43000818
:1040D0006B4300086B43000815A6000821A60008E2
:1040E0006B4300086B4300086B4300086B430008F8
:1040F0006B4300086B4300086B4300086B430008E8
:104100006B4300086B4300086B4300086B430008D7
:104110006B43000889A300086B4300086B43000849
:104120006B4300086B4300086B4300086B430008B7
:1041300000F002F800F0B0F80AA090E8000C824409
:104140008344AAF10107DA4501D100F0A5F8AFF2E6
:10415000090EBAE80F0013F0010F18BFFB1A43F065
:104160000103184758BE000078BE00000A444FF013
:10417000000C10F8013B13F0070408BF10F8014BC6
:104180001D1108BF10F8015B641E05D010F8016B0B
:10419000641E01F8016BF9D113F0080F1EBF10F86F
:1041A000014BAD1C0C1B09D16D1E58BF01F801CB92
:1041B000FAD505E014F8016B01F8016B6D1EF9D515
:1041C0009142D6D37047000000230024002500262A
:1041D000103A28BF78C1FBD8520728BF30C148BF6A
:1041E0000B6070476E2900F0A783702900F0C18131
:1041F000662909F04385652909F04085672909F09A
:104200003D85612909F03C8503681B0A28BF41F000
:104210008001692900F03281642900F02F8175291D
:1042200000F02C816F2900F0A684782900F08D81A0
:10423000E92900F04184E42900F03E84F52900F0EA
:104240003B84EF2900F0A384F82900F08C810368F7
:10425000DB0928BF41F08001632900F0B083732996
:1042600000F0B583E32901F09B80F32901F0A080E1
:10427000002070471FB501F0F5F804000020002170
:1042800009F000FC401C60600020002109F0E4FB04
:10429000E0601FBD10B510BD01F0B6F81146FFF784
:1042A000E9FF07F0E7F801F093F903B4FFF7F2FF35
:1042B00003BC01F0D7F90000224B19680868B0E888
:1042C000F00F80F30988BFF36F8F4FF0000080F389
:1042D00011884EF00D0E704700000000064800687F
:1042E000006880F3088862B661B6BFF34F8FBFF3F2
:1042F0006F8F00DF00BF00BF08ED00E0EFF3098023
:10430000BFF36F8F0F4B1A6820E9F00F106008B5EC
:104310004FF0050080F31188BFF34F8FBFF36F8F0D
:1043200008F08EFC4FF0000080F31188BDE80840D3
:1043300019680868B0E8F00F80F30988BFF36F8F41
:10434000704700BF58010020EFF305807047000060
:104350000948804709480047FEE7FEE7FEE7FEE719
:10436000FEE7FEE7FEE7FEE7FEE7FEE70448054955
:10437000054A064B70470000699D0008314100085E
:10438000F0200020F0260020F0220020F022002063
:104390007CB51D4616460C00009001D02044401EFE
:1043A000074B7B442A4669460190304600F0DDFA0F
:1043B00005461CB10020694600F0EAFA28467CBD9B
:1043C000F50500000FB4044910B503AA029800F0E7
:1043D00003FB10BC5DF814FB3C00002070B50446E4
:1043E00085690068C10601D5302600E02026C00797
:1043F00007D070BDD4E9012130469047206A401CA7
:1044000020626D1EF6D570BD70B5044685690078D2
:10441000C00707D170BDD4E9012120209047206A50
:10442000401C20626D1EF6D570BD70B50C46054669
:10443000012A05D02878800600D5EA69002302E029
:10444000012305E05B1C934202D2E05C0028F9D115
:10445000A869E618C01AA861286A18442862284684
:10446000FFF7BCFF04E0D5E9012114F8010B9047E8
:10447000B442F8D32846FFF7C7FF70BD2DE9F041DD
:104480000646002410687529314616A510D000F0A4
:10449000E8F9002802DA404213A507E031688A07EC
:1044A00001D512A502E0490704D511A5012401E0B8
:1044B00000F0E0F900210A2206F1240709E0B0FB30
:1044C000F2FCB0FBF2F302FB1C00303078541846CB
:1044D000491C0028F3D123462A463046BDE8F04166
:1044E00000F0D1B9000000002D0000002B000000FA
:1044F00020000000F0B40D460188090502D5214CCA
:104500007C4402E01F4C7C440E34002100F1240660
:1045100008E002F00F071209E75D42EA03721B0987
:104520007754491C52EA0307F3D10278002312079B
:1045300004D5702D06D009B1022311342246F0BCF7
:1045400000F0A1B901231034F8E770B504460D4618
:104550002146106800F08EF9024629462046BDE843
:1045600070400023C6E7D21D22F00703D3E90023E1
:10457000C0E70368126843F0200303600823C361A7
:104580000023B7E79AB900002DE9F05F8946044699
:104590004FF0000ADFF874B1FB44C0F820A02046B9
:1045A000E1688847002874D0252806D0D4E9012185
:1045B0009047206A401C2062F1E700265F462046B3
:1045C000E16888472028054607DB312D05D2781998
:1045D00010F8200C08B10643F1E7B00701D526F02A
:1045E0000406C4F81CA00027C4F818A02A2D09D07E
:1045F000284606F055F838B304EB8708303DC8F874
:10460000185019E059F8041B204604EB8702916109
:10461000E1688847012F054618D1E069002820DAB3
:1046200026F020061DE0D8F8180000EB800005EB0E
:1046300040003038C8F818002046E1688847054631
:1046400006F02EF80028EED1012F0AD02E2D08D129
:104650002046E16888477F1C0546022F46F0200669
:10466000C4DBA069002803DA404246F00106A061DD
:10467000F00701D026F010066C2D0BD0682D09D064
:104680004C2D39D06A2D35D0742D35D07A2D33D0BC
:1046900016E038E0E1682F4620468847B8420546D4
:1046A00009D16C2F26D04FF48060E1680643204684
:1046B0008847054604E06C2F1AD04FF480700643FB
:1046C0000DB3A5F14100192802D8203546F4006643
:1046D0004A462946204626604E46FFF783FD80B1B4
:1046E00001280BD0F61D26F0070000F1080956E757
:1046F0004020E4E78020D8E70020D6E706F104094F
:104700004DE7284652E7206ABDE8F09F2AB900002D
:10471000032A40F2308010F0030C00F0158011F8ED
:10472000013BBCF1020F624498BF11F801CB00F8C5
:10473000013B38BF11F8013BA2F1040298BF00F819
:1047400001CB38BF00F8013B11F0030300F02580D6
:10475000083AC0F0088051F8043B083A51F804CBFD
:10476000A0E80810F5E7121D5CBF51F8043B40F8C3
:10477000043BAFF30080D20724BF11F8013B11F8CE
:1047800001CB48BF11F8012B24BF00F8013B00F812
:1047900001CB48BF00F8012B704710B5203AC0F09C
:1047A0000B80B1E81850203AA0E81850B1E8185032
:1047B000A0E81850BFF4F5AF5FEA027C24BFB1E86F
:1047C0001850A0E8185044BF18C918C0BDE81040E0
:1047D0005FEA827C24BF51F8043B40F8043B08BFE9
:1047E0007047D20728BF31F8023B48BF11F8012BB0
:1047F00028BF20F8023B48BF00F8012B704702F0A9
:10480000FF0343EA032242EA024200F0CDB94FF02F
:10481000000200B5134694469646203922BFA0E810
:104820000C50A0E80C50B1F12001BFF4F7AF09071C
:1048300028BFA0E80C5048BF0CC05DF804EB89000D
:1048400028BF40F8042B08BF704748BF20F8022B50
:1048500011F0804F18BF00F8012B70477047704768
:10486000704709684A0501D540B27047C905FCD5B3
:1048700000B2704709684A0501D5C0B27047C90542
:10488000FCD580B270472DE9F0470D469946924617
:10489000044600F124080168880604D5E06921F087
:1048A0001001216000E00120A84201DD471B00E06B
:1048B0000027A1697A1902EB0900081AA061207883
:1048C000C00602D42046FFF789FD002608E0D4E99F
:1048D00001211AF806009047206A401C761C2062CD
:1048E0004E45F4DB2078C0060AD52046FFF776FD5A
:1048F00006E0D4E9012130209047206A401C206264
:10490000381EA7F10107F4DC07E0D4E9012118F80B
:1049100005009047206A401C2062281EA5F1010571
:10492000F3DC2046FFF770FD2078000602D5022058
:10493000BDE8F0870120FBE711680268006A5305B3
:1049400001D508700AE0D30501D5088006E01306FA
:1049500003D5C217C1E9000200E0086001207047DA
:1049600001694A1C02610878704700B58FB0CDE933
:1049700001310021059105497944CDE90310114623
:104980006846FFF701FE0FB000BD0000E5FFFFFF26
:104990000A6802F8010B0A607047D1E900239A42C5
:1049A00002D2531C0B601070704710B5436913B1ED
:1049B000AFF3008001E0FFF738FD012010BD127851
:1049C00000F124010A7000224A700122EDE711680B
:1049D0004FF0FF32E9E70000074B70B50D467B440E
:1049E000FFF7C3FF0446284600F0E6FC10B14FF085
:1049F000FF3070BD204670BD9F6700002DE9FF5F4E
:104A000015468A460446DFF8AC80F8440027D8E90A
:104A100000103E46CDE9001010E03AF816106A4644
:104A200002A800F0CDFC411C07D02178890603D5EF
:104A3000E269391891420DD80744761C2078800627
:104A400002D5E069B84205DDAE42E6DB3AF8160071
:104A50000028E2D1A069C01BA0612046FFF7BEFC80
:104A6000D8E90010CDE90010002017E03AF818103E
:104A70006A4602A800F0A4FCB0F1FF3F81460BD0CB
:104A800000250DF1080B05E0D4E901211BF8050014
:104A900090476D1C4D45F7D308F10100B0428046A8
:104AA000E4DB206A384420622046FFF7ADFCBDE815
:104AB000FF9F0000CAB400002DE9F0418046D21DDE
:104AC00022F007020025D2E90002F52915A614D02C
:104AD000011E72F1000106DA0023D0EB030063EB44
:104AE000020211A608E0D8F800108B0701D50FA626
:104AF00002E0490701D50EA601251146002408F160
:104B0000240704E000F070F830323A55641C50EA93
:104B10000102F7D12B46324621464046BDE8F0411E
:104B2000FFF7B1BE000000002D0000002B000000C8
:104B30002000000030B4002100F1240408E002F05D
:104B40000705D208303542EA4372DB086554491C38
:104B500052EA0305F3D10468002310A2250707D504
:104B6000A40600D421B1C46901230DA2641EC4614E
:104B700030BCFFF788BE10B5044621461068FFF729
:104B800079FE02462046BDE810400023D2E7D21D40
:104B900022F00701D1E90023CCE70000000000006B
:104BA000300000004FF000020429C0F0128010F025
:104BB000030C3FF42EAECCF1040CBCF1020F18BF75
:104BC00000F8012BA8BF20F8022BA1EB0C01FFF786
:104BD00020BE5FEAC17C24BF00F8012B00F8012B46
:104BE00048BF00F8012B704730B5B0F10A024FEA18
:104BF000900E71F100034EEA817EB0EB0E0061EB86
:104C000091014FEA101E4EEA017E10EB0E0041EBBF
:104C100011114FEA102E4EEA016E10EB0E0041EB1F
:104C200011214FEA104E4EEA014E10EB0E0041EBFF
:104C30001141401841F100014FEAD00040EA4170B3
:104C40004FEAD10110EB80054FEA810444EA9074E9
:104C500044EB01046D1944EB0404521BA3414FF0D3
:104C6000000348BF0A3200D530BD401C41F10001AD
:104C700030BD70472DE9FF4F0C461E464FF0FF3701
:104C80008BB0D2E90001DDF860800A908A46C1F35A
:104C90000A5505B93D46002108464FF00000BAF11B
:104CA000000F00F4400005DA00EB80004FF44001F3
:104CB00001EA50004FEA9059B9F1010F00DDB94601
:104CC0000A9850EA4A000ED044F61050A5F2FF357B
:104CD00045432F14B8F1000F1ED07542291E1EDD6A
:104CE000C9F100021CE0B8F1010F4FF0000001D043
:104CF000302103E0F24305E02154401CB042FBDBCD
:104D000030460022002121540B99C1F80880C1E9E6
:104D100000200FB0BDE8F08FBD1B6D1CDEE74A46DA
:104D200000DA694206A800F0E1FB06AB93E8070051
:104D300003AB83E8070050460A9900F09AFC8DE81F
:104D40000700A0F500501F3800900398002D0ADDE1
:104D500042F21F014A460844002303A90390684613
:104D600000F003FF09E0A0F500504A461F38002379
:104D700003A90390684600F00DFF8DE807000004CA
:104D8000000C03D04FF0FF30410800E01046B8F1AE
:104D9000000F03D00022009215461EE0751E05D4B8
:104DA000FFF722FF303262556D1EF9D5B34601225E
:104DB000084302D000227F1C04E02078302801D173
:104DC00000227F1E002A099784D01DE0112D07DAEA
:104DD000FFF70AFF303262556D1C50EA0102F5D12F
:104DE000084302D00098C8B10EE00021681E05E01B
:104DF000235C625C63542254401E491C8142F7DBF1
:104E0000AB46A81B401E0990002004F80B000B982D
:104E1000099AC0F80880C0E9002B7AE711264FF004
:104E2000000857E72DE9F04F88460446D21D22F0CE
:104E3000070191B0D1E90001CDE90A0105F0FDFBC0
:104E400002460B98C00F01D02D2007E02068810793
:104E500001D52B2002E0202101EAC000032A09909D
:104E600001D0072A05DB03464146204600F0FEFA42
:104E70000BE12078800601D5E06900E00620B8F15A
:104E8000650F814606D0B8F1660F18D0B8F1670FEC
:104E900070D131E00020B9F1110F009001DB112336
:104EA00001E009F101030AAA01A90CA8FFF7E2FE3B
:104EB000DDE90C70002609F10105834647E0012079
:104EC0004B4600904FF000470AAA01A90CA8FFF733
:104ED000D1FEDDE90DB00C995D46002610B909F14F
:104EE00001000D18B9EB050003D4C0F1FF3609F13C
:104EF0000105A5EB09002BE0B9F1010F01DA4FF034
:104F000001090020B9F1110F0090484601DD11237D
:104F100000E003460AAA01A90CA8FFF7ABFEDDE9F1
:104F20000C704D4600268346207800070AD4AB4516
:104F300000DA5D4601A8012D04DD411911F8011CBC
:104F4000302907D04F4502DA17F1040F04DA0120A7
:104F500082460FE06D1EEEE7002F02DCED1B3E44A3
:104F600003E0781CA84200DD7D1CB81B00F1010A9B
:104F70004FF000472078000703D4AA4501DB4FF02B
:104F8000FF3A0021B7F1004F0DF143088DF84310AF
:104F900024D002202B23002F01DA7F422D230A2167
:104FA000021EA0F1010000DC5FB197FBF1FC97FB52
:104FB000F1F201FB1C7C17460CF1300C08F801CD16
:104FC000EEE7A8F1010003702188090501D545210C
:104FD00000E06521A0F1010800F8011C09980FA963
:104FE000A1EB0807FF1D00B10120411901EBEA7098
:104FF000A1693844081A401EA0612078C00602D476
:105000002046FFF7EBF9099828B1D4E90121904730
:10501000206A401C20622078C00622D52046FFF777
:10502000DDF91EE0002E04DBB34502DD01A8805D42
:1050300000E03020D4E901219047206A401C206222
:10504000761CAAF101005FEA000A0AD100F00AFA10
:10505000C0680168405CD4E901219047206A401C87
:105060002062281EA5F10105DCDC07E0D4E901215E
:1050700018F8010B9047206A401C2062381EA7F1E7
:105080000107F3DC2046FFF7BFF9032011B041E62A
:105090002DE9F04F04460D46D21D22F0070089B0DD
:1050A000D0E900974846394605F0C7FA0246F80F9E
:1050B00001D02D2307E02068810701D52B2302E0D2
:1050C000202101EAC0038DF820300BB1012000E05F
:1050D0000020032A824601D0072A04DB2946204605
:1050E00000F0C4F93FE12078800601D40D2500E0EE
:1050F000E569C7F30A560D2D49DA00214FEA175B1F
:1051000008464FF00000002F00F4400007DA00EBE3
:1051100080004FF4400100EBD07001EA600081157F
:10512000012901DD4FF0FF3100224FEA850CBCF16F
:10513000180F06D31346ACF118004FF08052C2404E
:1051400003E04FF4801323FA0CF30CF10C0CBCF1C8
:10515000200F04D3ACF1200C09FA0CF001E007FA9F
:105160000CF000294FF0004801DD18B90FE00ED116
:1051700040450CD319EB02095F4121B9404502D1EA
:105180009F4329EA0209BBEB175F00D0761C2088F9
:10519000000502D57B48784402E07A487844193803
:1051A00008AA302302F80A30037C0AF10101002E1C
:1051B0000AF1020A53546A4602DC4FF0300101E062
:1051C0004FF031014FF001088DF8001002D0A6F227
:1051D000FF3603E059EA470100D06B4E002D02DC98
:1051E0002178090704D54FF002082E218DF801100F
:1051F000C44600210BE0C7F303433F01C35C491CD5
:105200006D1E02F80830052908F1010801DA002DA9
:10521000F1DC00210CE000EB1973491C1B786D1EBA
:10522000082902F808304FEA091908F1010801DAE3
:10523000002DF0DC21688B0602D516E0A8F10108EC
:10524000E04505DD02EB080313F8013C302BF5D0F7
:10525000B8F1000F09DD02EB080313F8013C2E2B17
:1052600003D1090701D4A8F10108002D05DD3E2175
:1052700002F808106D1E08F10108407C002E02F8AB
:10528000080008F1010804DA2D20764202F808002F
:1052900002E02B2002F808000A214FF47A708642BF
:1052A00008F101080BDB96FBF0F3303302F808300D
:1052B00096FBF0F308F1010800FB136601E0642E91
:1052C0000CDB642096FBF0F3303302F8083096FBD9
:1052D000F0F308F1010800FB136601E00A2E06DB7B
:1052E00096FBF1F0303002F8080008F1010896FB57
:1052F000F1F001FB1060303002F80800A16908F1FC
:10530000010808EB050202EB0A00081AA0612078E8
:10531000C00602D42046FFF761F8216A08AE01EB0F
:105320000A00206204E0D4E9012116F8010B90473D
:10533000BAF1010AF7D22078C00602D52046FFF75D
:105340004DF86E4609E016F8010B3E280FD0D4E95F
:1053500001219047206A401C2062B8F10108F2D276
:105360002046FFF751F809B00320BDE8F08F206A0E
:105370002844206203E0D4E90121302090476D1ECB
:10538000EBD3F8E759AD000002FCFFFF10B543690D
:1053900013B1AFF3008001E0FFF730FB012010BD37
:1053A000128800F1240182840022C2840122EDE7E8
:1053B00011684FF0FF32E9E7007B00F08000704792
:1053C00070B516460C46054600F044F8036893F89D
:1053D0000101012806D0FF2C0FD8185D68B101200B
:1053E0002C7070BDD3F807013246214603F2071333
:1053F00003442846BDE8704018474FF0FF3070BDA9
:1054000000487047902000207546FFF7F9FFAE4630
:1054100005006946534620F00700854618B020B5C0
:10542000FEF7A4FFBDE820404FF000064FF0000754
:105430004FF000084FF0000B21F00701AC46ACE83C
:10544000C009ACE8C009ACE8C009ACE8C0098D46A9
:105450007047000010B500F005F8001D10BD00BF3A
:105460002586000000487047B02000202DE9F0415B
:105470001F46044603260168072A01F4006004DB86
:1054800008B116A505E016A503E008B115A500E0D2
:1054900015A521F010002060A069C01EA0610FB109
:1054A000401EA0612046FEF799FF4FB1D4E90121CB
:1054B00038469047206A401C2062C01C206206E0EB
:1054C000206AFAE7D4E9012115F8010B9047761E0E
:1054D000F8D22046FEF798FFBDE8F0814E414E001D
:1054E0006E616E00494E4600696E66002DE9F04718
:1054F000814616468AB0354878440DC88DE80D00BF
:1055000032487844801C03AC0DC884E80D0041F695
:105510009B300844372190FBF1F290FBF1F5A5F1A7
:10552000800501FB12041B3C02D56442012000E00F
:105530000020DFF898A080460027FA44AAF1BE0AAE
:105540000EE0E0070AD03246684607EB4701012328
:105550000AEB810100F01EFB8DE8070064107F1C40
:10556000002CEED1194F7F44AE3F19E0E80715D06B
:1055700007EB04100DF1180A90E80E008AE80E00FF
:10558000C068F04201D1981908903246012306A95B
:1055900003A800F0FFFA03AB83E807006D10641C5A
:1055A000002DE3D14FF0010332466946B8F1000FF8
:1055B00003A802D000F0D9FA01E000F0EBFAC9E943
:1055C0000001C9F808200AB0BDE8F08788AA0000E9
:1055D00010B50446AFF300802046BDE81040FEF74A
:1055E00064BE00004FF0013C50F8042B51F8043B1E
:1055F0009A4221D1A2EB0C03934313EACC1317D1A7
:1056000050F8042B51F8043B9A4215D1A2EB0C033D
:10561000934313EACC130BD150F8042B51F8043BFD
:105620009A4209D1A2EB0C03934313EACC13DBD0CB
:105630004FF00000704700BFD01A01BAB1FA81F1F3
:1056400001F0180122FA01F0CB40C1F12001DBB2D8
:10565000C0B2C01A2CFA01F3D11A914311EAC31156
:10566000E6D1704701491820ABBEFEE726000200D4
:1056700070475FEA400C08BF91F0000F4FEA8C239F
:105680004FEAC12243EA51514FEA1C5018BF00F5BE
:10569000F0404FEA300018BF41F000415FEA6C5C17
:1056A00000F02980BCF1FF3F08BF40F08040704708
:1056B000130C06BF12044FF0100C4FF0000C130E29
:1056C00004BF12020CF1080C130F04BF12010CF1FD
:1056D000040C930F04BF92000CF1020CD30F04BF13
:1056E00052000CF1010C11464FF00002A0F11F0016
:1056F000A0EB0C00704711F0004F08BF704731F06D
:1057000000413FF4D5AF0B0C06BF09044FF0100C5D
:105710004FF0000C0B0E04BF09020CF1080C0B0F2C
:1057200004BF09010CF1040C8B0F04BF89000CF1BC
:10573000020CCB0F04BF49000CF1010CCCF120038B
:10574000A0EB0C0022FA03F302FA0CF241EA030187
:1057500000F10100704720F07F4C80EA030023F045
:105760007F47ACEB070303F57C5300F0004003F1E7
:10577000FF032DE980494FEA154B09B44FEA144362
:1057800025EA0B4E24EA03480FF2042606EB132702
:1057900049083E785FEA320203FB0667C7F5000757
:1057A00007FB06F64FEA54374FEAD64606F10206E3
:1057B00007FB066CCCF1005C4FEA1C472CEA074C57
:1057C00007FB06F40CFB06F504EB15464FEA9616AC
:1057D00034BF00204FF000404FEAD13706FB07FCF2
:1057E0004FEA1C4C0CFB0BF7D21B03FB0CF761EBD5
:1057F00007010CFB0EF7B0EB074072EB17420CFBF6
:1058000008F734BFA2EB0742B2EB074261EB174146
:105810004FEA0C444FEA910706FB07FC4FEA1C4C89
:105820000CFB0BF7B0EBC74072EB573203FB0CF7E6
:1058300034BFA2EBC742B2EBC74261EB57310CFB5E
:105840000EF7B0EBC70072EB57720CFB08F734BFD2
:10585000A2EBC702B2EBC70261EB5771039F4FEA9D
:10586000816141EA921104EBCC044FEAD1374FEA4F
:10587000826206FB07FC42EA90124FEA80604FEA20
:105880001C4C0CFB0BF7D21B03FB0CF761EB070165
:105890000CFB0EF7B0EB074072EB17420CFB08F75E
:1058A00034BFA2EB0742B2EB074261EB17414FEA6C
:1058B0008C554FEA910704EB9C2406FB07FC4FEA4A
:1058C0001C4C0CFB0BF7B0EBC74072EB573203FBE1
:1058D0000CF734BFA2EBC742B2EBC74261EB5731C2
:1058E0000CFB0EF7B0EBC70072EB57720CFB08F71E
:1058F00034BFA2EBC702B2EBC70261EB577115EBE5
:105900004C254FEA816141EA92114FEA82624FEAE7
:10591000D13742EA901206FB07FC44F100044FEA3B
:1059200080604FEA1C4C0CFB0BF7D21B03FB0CF7FF
:1059300061EB07010CFB0EF7B0EB074072EB17426F
:105940000CFB08F734BFA2EB0742B2EB074261EB56
:10595000174115EB1C154FEA813141EA92414FEA9C
:10596000823242EA90424FEA80304FEA0C7644F1AC
:10597000000448EA03434EEA0B484FF0000EB2EB36
:10598000080C71EB030724BF624639464EEB0E0E3E
:105990004FF0000B0018524149414BEB0B0BB2EB9F
:1059A000080C71EB03077BF1000B24BF62463946FC
:1059B0004EEB0E0E4FF0000B0018524149414BEBDD
:1059C0000B0BB2EB080C71EB03077BF1000B24BF50
:1059D000624639464EEB0E0E51EA020718BF46F0FA
:1059E000010616EB0E7655F1000254F1000103D5C5
:1059F000BDE88901BDE80088BDE88901BDE800482F
:105A0000B619524141EB0101A3F1010370478080B7
:105A10007F7E7D7C7B7A7978777676757473727108
:105A200071706F6E6E6D6C6C6B6A6A6968686766C0
:105A300066656464636362616160605F5F5E5E5D52
:105A40005D5C5C5B5B5A5A595958585757565655C6
:105A500055555454535352525251515050504F4F28
:105A60004F4E4E4D4D4D4C4C4C4B4B4B4A4A4A4978
:105A700049494848484747474746464645454544BB
:105A80004444444343434342424242414141002B48
:105A90009C4630D477002BD01CB54FEA370703B4AF
:105AA0004FF010004FF01001BAF1000F06D0BCF11A
:105AB000000FDCBF40F0080040F008014FF000008C
:105AC0000FBCBDE810400BF1010BBBF1010F08BF8B
:105AD0005FEA170722BF12F1010211F101014FF035
:105AE000004143F1000300F0004043EA000070472A
:105AF000F9D35708D0E746EA064613F1400F4FEABC
:105B000016461FDD13F1200FDFBF16430A460021A2
:105B100020335B42BED0C3F1200746EA064602FAB4
:105B200007F74FEA164646EA0706C3F1200722FAAE
:105B300003F201FA07F721FA03F14FF0000342EAFA
:105B40000702A7E746EA020646EA06464FEA164675
:105B500046EA0106BCBF46EA0646360C4FF0000393
:105B60004FF000024FF0000194E72DE9804C9A4677
:105B7000934670B491E8380007C831EA400C48BF3A
:105B800034EA430C03D5FFF7E6FDFFF780FFF0BCD6
:105B9000BDE8008C2DE9804C9A46934670B491E89C
:105BA000380007C810F0804F08BF13F0804F03D1B2
:105BB00000F005F8FFF76BFFF0BCBDE8008C20F0AB
:105BC0007F4780EA030023F07F4C07EB0C03A3F52B
:105BD0007C5300F00040A3F1FE0392F0000F00F0B0
:105BE000B38095F0000F00F077802DE901494FEA6E
:105BF00011404FEA144621EA004800FB06FC24EA63
:105C0000064708FB06F607FB08F800FB07F718EB4A
:105C100006484CEB164C4FEA124B18EB07484FEA7C
:105C200015464CEB174022EA0B4E0BFB06FC25EA0F
:105C300006470EFB06F607FB0EFE0BFB07F71EEBF7
:105C4000064E4CEB164C4FF000061EEB074E4CEB8D
:105C5000174B18EB0B0840F1000018EB0E0B58EB3C
:105C6000000840F100008F1A4FF000013CBFC9430B
:105C7000661B14BFB5EB040C00213CBFC943F61BE7
:105C80004FEA17444EEA8E0E27EA04454FEA1C47B6
:105C900004FB07622CEA074C05FB07F70CFB05F633
:105CA00004FB0CFC16EB074642EB174216EB0C46C6
:105CB00042EB1C421BEB060658EB0202414146EA4E
:105CC0009E0601D5BDE80189B619524141EB01019B
:105CD000A3F10103BDE801894FEA14454FEA1147DA
:105CE00024EA054621EA074C05FB07F406FB07F703
:105CF0000CFB06F105FB0CFC11EB074144EB1744D0
:105D00004FEA124711EB0C4144EB1C4422EA074CCA
:105D100005FB07F206FB07F70CFB06F605FB0CFC80
:105D200016EB074642EB174216EB0C4642EB1C45BE
:105D30006A1854F1000148BF7047B619524141EB4F
:105D40000101A3F10103704795F0000F37D04FEA2E
:105D500011424FEA144721EA024624EA074C02FBAB
:105D600007F106FB07F70CFB06F402FB0CFC14EB37
:105D7000074441EB17414FEA154714EB0C4441EB44
:105D80001C4125EA074C02FB07F506FB07F70CFB55
:105D900006F602FB0CFC16EB074645EB174516EB27
:105DA0000C4645EB1C42121951F1000148BF7047E7
:105DB000B619524141EB0101A3F1010370474FEACB
:105DC00014454FEA114724EA054621EA074C05FB32
:105DD00007F106FB07F70CFB06F24FF0000605FB88
:105DE0000CFC12EB074241EB174112EB0C4251EB5A
:105DF0001C4148BF7047921841EB0101A3F1010318
:105E00007047000070B5044600688168C943C9073F
:105E100017D1816821F00101816001F085FA054602
:105E20000AE000BF01F080FA401B022804D9206874
:105E30008068C043C00706D020688068C043C007A0
:105E4000F0D0002070BDA06A40F01000A062E06AAF
:105E500040F00100E062012070BD0000F8B50026AE
:105E60000446009600688168C943C9072DD081683F
:105E700041F001018160164816490068B0FBF1F05D
:105E800000E0401E00900028FBD101F04DFA0546CD
:105E900016E000BF01F048FA401B022810D9206824
:105EA0008068C043C0070BD0A06A40F01000A06219
:105EB000E06A40F00100E06284F824600120F8BD4F
:105EC00020688068C043C007E4D10020F8BD00000E
:105ED0005401002040420F00FEE700001CB58DF881
:105EE00000100D49086000208860C860012008612A
:105EF0000948283800F0A3FD0028F9D0064901AB75
:105F00006A46A1F1280000F023FC002802D003A07B
:105F1000FEF758FA1CBD00000C0D002043414E2036
:105F200041434BB7A2CBCDCAA7B0DCA3A10D0A0059
:105F30001CB50B0A8DF800208DF801100D498DF865
:105F40000230086000208860C860032008610948AA
:105F5000283800F074FD0028F9D0064901AB6A46E4
:105F6000A1F1280000F0F4FB002802D002A0FEF707
:105F700029FA1CBD0C0D002043414E2041434BB774
:105F8000A2CBCDCAA7B0DCA3A10D0A008EB0B34F3F
:105F9000DFF8CCB240F2011A0DF108084FF0000909
:105FA0004FF0FF320AA8396805F0FCFBDDE90A0171
:105FB000102874D10FC90DF1080C8CE80F0008F1FE
:105FC000050007F03FFD9DF81410029D884204D0A3
:105FD000FF212846FFF782FFE2E7B5F5807F04D076
:105FE000554502D0B5F5817F78D19DF80E609DF8BA
:105FF0000F1006EBC60C0CEB0B049DF810009DF87F
:1060000011309DF8122004F8086C04F8051C04F8FF
:10601000040C04F8033C04F8022CA4F10900092143
:10602000079004F019FF04F8010C14F8091D8DA065
:1060300006F0B4FB617890A006F0B0FBA17893A0C5
:1060400006F0ACFBE17896A006F0A8FB217999A0B8
:1060500006F0A4FB61799CA006F0A0FBA1799FA0AB
:1060600006F09CFBE179A2A006F098FB217AA5A09E
:1060700006F094FBA8A006F091FBAB208DF8200061
:106080008DF8216007208DF8220047208DF823002D
:10609000B5F5807F04D0554504D1012003E087E0A9
:1060A000002000E002208DF824008DF825900721C3
:1060B00008A804F0D1FE8DF82600072208A99D4803
:1060C00003F066FC0A2005F04DFB09229948079968
:1060D00003F05EFC00212846FFF700FFA5F5807065
:1060E000033808D0A5F58060013824D0A5F580607C
:1060F000023859D05CE000212846FFF7EFFE8E4AB7
:106100009DF80E00D2E90012CDE900128DF80100D1
:106110000521684604F0A0FE8DF8040005226946BA
:10612000844803F035FC85480022B0F90010284669
:10613000FFF7FEFE3CE0824C4E46C4F80890BDF8E6
:106140000E0040BA01049DF8100041EA00219DF8BC
:10615000110001437BA0616006F020FB606810B174
:10616000B0F5E03F08D97DA006F018FBFF212846D6
:10617000FFF7B4FE667013E7607880B1FF21284610
:10618000FFF7ACFE7848D0F8B81478A006F006FB0C
:10619000A1787BA006F002FB617880A043E001209B
:1061A0006070A0700021EAE7654C6078022803D097
:1061B000012005F0D7FAF3E6D4E90101411A0429D8
:1061C00000D2A168A168421A042A0EDBDDF80E0095
:1061D000009004226946206A05F0E8FBA068001DD3
:1061E000A060206A001D206213E0501E164603289E
:1061F0000FD26EA008F106010068019001A8FEF719
:1062000087FA042201A9206A05F0D0FBA068304477
:10621000A060A0686168884208D200212846FFF784
:106220005DFEA16862A006F0B9FAB9E684F80190B3
:10623000A16864A006F0B2FAFE212846FFF74EFEE0
:1062400006F0D2F84FF0AA3006F09CFD42F2107032
:1062500000F044FF01F0ECFBA2E600001400002077
:106260009400002061727261795B305D3D30782569
:106270003032580D0A00000061727261795B315D45
:106280003D3078253032580D0A000000617272618D
:10629000795B325D3D3078253032580D0A000000C0
:1062A00061727261795B335D3D3078253032580D13
:1062B0000A00000061727261795B345D3D307825BF
:1062C0003032580D0A00000061727261795B355DF1
:1062D0003D3078253032580D0A000000617272613D
:1062E000795B365D3D3078253032580D0A0000006C
:1062F00061727261795B375D3D3078253032580DBF
:106300000A000000636865636B73756D3D30782526
:106310003032580D0A0000002D2D2D2D2D2D2D2D44
:106320002D2D2D2D2D2D2D2D2D2D2D2D2D2D0D0AE0
:10633000000000002806002064DD00084401002061
:10634000180000206F74615F746F74616C5F6C651E
:106350006E2069732025750D0A0000006F7461209E
:106360006572726F720D0A002808002063616E5119
:10637000756575652E73697A653D25640D0A0000A3
:106380006F74615F70656E64696E675F7265717569
:106390006573743D25640D0A000000006F74615F31
:1063A0007374617475733D25640D0A00FFFFFFFF70
:1063B0006F74615F726563765F6C656E3A09256420
:1063C0000D0A00006F74612066696E6973682C2085
:1063D0006F74615F726563765F6C656E203D20252A
:1063E000750D0A007047042000F08CBE72B6FEE7FF
:1063F000F8B50024009490F824202546012A12D0F4
:10640000012280F824204A681F23072A0DD206683B
:10641000776B521E02EB820293409F430B689340BE
:106420001F43776319E00220F8BD06680D2A0AD2DF
:10643000376BD21F02EB820293409F430B6893405D
:106440001F43376309E0F76A0D3A02EB820293407B
:106450009F430B6893401F43F7620A68072306684F
:106460000A2A0AD3F7680A3A02EB420293409F4392
:106470008B6893401F43F76008E0376902EB4202E4
:1064800093409F438B6893401F4337610A68102AEB
:1064900001D0112A20D1124B02689A4217D1936879
:1064A0001B0219D4936843F4000393600968102910
:1064B00012D10C490C4A0968B1FBF2F101EB8101E0
:1064C000490000E0491E00910029FBD104E0816AE7
:1064D00041F020018162012480F824502046F8BD5B
:1064E000002401405401002040420F000068C06CAD
:1064F000704700002DE9F04104004FF000057FD007
:10650000A06A002628B9E66284F82460204600F0DC
:1065100081F82046FFF776FCA16AC90600D420B1B5
:10652000A06A40F01000A0626AE0A16A21F48851DC
:1065300041F00201A162334923688B42E16904D131
:10654000B1F5402F01D14FF40021277B4FF4807C1F
:1065500041EA470261680A43A168614508D0012900
:1065600006D0002194F814E0BEF1010F02D00AE039
:106570006146F7E7C7B1A76A47F02007A762E76A55
:1065800047F00107E7625F6827F469470F435F60E0
:10659000236899681C4F394011439960A16861458F
:1065A0000BD0012909D00CE0DFF860E0A7690EEB01
:1065B00047370F4347F40061E5E7218A0D05A5F54C
:1065C00080152168CB6A23F470032B43CB622168CA
:1065D00089680F4B1940914208D1E662A16A21F007
:1065E000020141F00101A162BDE8F081A06A20F042
:1065F000020040F01000A062E06A40F00100E0629A
:106600000120F1E7003C0140FDF7E1FF00E0FFFF62
:10661000FE0E1FFF00B585B000210091019102918F
:10662000039100680E49884218D10E48816941F4EF
:1066300000718161816901F400710491816941F007
:10664000100181618069694600F01000049001200A
:10665000009003200190044800F060FD05B000BDEB
:1066600000240140001002400010014070B50446B3
:1066700090F8240001280DD0012084F82400204641
:10668000FFF7ECFB02004FF0000005D084F8240077
:10669000104670BD022070BDA16A40F201239943EB
:1066A00041F48071A1621F4D23681F49AB4218D18C
:1066B0000E6816F4702F14D0A66A46F48016A662EF
:1066C0000E68760505D5A66A26F4005646F480566F
:1066D000A662A66AF6040AD5E66A26F00606E6620F
:1066E00006E0A66A26F48016A6625E68E9E7E06224
:1066F00084F824006FF00200186020688368C3F3F8
:106700004243072B05D1A84208D1096811F4702F24
:1067100004D0816841F480118160B9E7816841F457
:10672000A001F9E7002801400424014090F820204E
:10673000012A07D0022A05D0416A41F48021416232
:1067400001207047006842690A4342610020704797
:10675000F0B590F820500468A468012D05D0022DF2
:1067600003D0416A41F4802163E014F0406F01D10D
:10677000E5005BD5650101D5002408E0250101D5C0
:10678000012404E0E40001D5022400E003240125F3
:10679000A5401D608D684FF4C073A5B1CE68354328
:1067A0004E6845EAC60500BF066803EB0417F551BD
:1067B0004FF4C275076805EB04150E697E51097D1B
:1067C000012905D009E00E88CD6845EA4655EBE77A
:1067D00001684E5946F480764E511179D579567933
:1067E00041EA056195792D0445EA062529434FF4D0
:1067F000C676056806EB0416A9511178D57841EAEA
:106800000561957852782D0445EA022211434FF430
:10681000C475026805EB04155151006803EB0411BF
:10682000425842F0010242500020F0BD416A41F45A
:10683000001141620120F0BD10B590F820300268CF
:10684000012B07D0022B05D0416A41F4802141621F
:10685000012010BDD2F8000240F00100C2F8000291
:10686000087D00F01F0301209840D2F81C328343BA
:10687000C2F81C32CB69B3B9D2F80C328343C2F8E8
:106880000C328C894B6864F31F434C6902EBC404DF
:10689000C4F840320C890B6864F31F434C6902EB67
:1068A000C404C4F84432CB69012B16D1D2F80C329F
:1068B0000343C2F80C320C884B6864F31F434C69E5
:1068C00002EBC404C4F840320C89CB6864F31F4364
:1068D0004C6902EBC404C4F844328B69002BD2F833
:1068E00004320FD053EA0003C2F804320B69002BC4
:1068F000D2F8143208D00343C2F81432096A0129CD
:1069000004D008E08343EFE78343F5E7D2F81C1295
:106910000143C2F81C12D2F8000220F00100C2F8B4
:106920000002002010BD70470246002092F820307F
:10693000012B01D0022B05D1106821B1D0F8100035
:1069400000F003007047C068FAE770B590F8204087
:10695000012C05D0022C03D0416A41F4802128E0AB
:10696000046809B32469A40720D04FF4D8740568DB
:1069700004EB01142D5915F00405956005682D5997
:106980001AD0ED08556005682C5904F00204D46053
:106990004FF4DA74056804EB01142E5906F00F0663
:1069A000082E0CD308250DE0E468DCE7416A41F4C9
:1069B00000114162012070BD6D0D1560E3E72D5996
:1069C00005F00F05156105682D59C5F3072595617B
:1069D00005682C59240C54614FF4DC72046802EBF6
:1069E0000112A4581C700468A458240A5C7004683E
:1069F000A458240C9C700468A258120EDA704FF44C
:106A0000DE72046802EB0112A4581C710468A458D9
:106A1000240A5C710468A458240C9C710468A25870
:106A2000120EDA71006829B1016941F0200101619B
:106A3000002070BDC16841F02001C160F8E7024646
:106A4000002092F82010012901D002290CD11168F0
:106A50008A68520100D501208A68120100D5401CC5
:106A60008968C90000D5401C70472DE9F05F0546D4
:106A7000006800244669D0F804908768D0F80CB00C
:106A8000D0F810A0D0F81880F10748D0F90714D03A
:106A900001218160B80703D5284600F020FA0CE0F8
:106AA000780702D54FF4006407E0380702D54FF4A9
:106AB000805402E0284600F011FAF80516D529683E
:106AC0004FF480708860B80503D5284600F009FAB5
:106AD0000CE0780502D544F4005407E0380502D5EF
:106AE00044F4804402E0284600F0FAF9F80316D591
:106AF00029684FF480308860B80303D5284600F039
:106B0000F2F90CE0780302D544F4004407E03803BE
:106B100002D544F4803402E0284600F0E3F930075F
:106B200007D55FEACB6004D52968102044F40074CF
:106B3000C86070074FF0080707D55FEA0B7004D5EF
:106B40002868C760284600F061F9B00706D52868B4
:106B5000C068800702D0284600F05AF9700607D5B1
:106B60005FEACA6004D52968102044F48064086193
:106B7000B00607D55FEA0A7004D528680761284681
:106B800000F07CF9F00606D528680069800702D07D
:106B9000284600F074F9B00308D55FEAC96005D54E
:106BA000296810204860284600F06AF9F00307D5EC
:106BB0005FEA097004D528684760284600F094F918
:106BC000300446D55FEA497040D5F00504D55FEA48
:106BD000C87001D044F00104B00504D55FEA8870A4
:106BE00001D544F00204700504D55FEA487001D570
:106BF00044F00404300529D518F0700F26D008F0B1
:106C00007000402815D006DC102809D020280AD0B2
:106C1000302816D10AE050280ED0602811D10EE09D
:106C200044F008040DE044F010040AE044F02004AD
:106C300007E044F0400404E044F0800401E044F440
:106C400080742868816921F07001816129680420BD
:106C50004860002C05D0686A204368622846FFF728
:106C600062FEBDE8F09F000070B5040003D094F808
:106C7000200010B109E0012070BD204600F088F826
:106C80002068016821F0020101602068016841F07C
:106C90000101016000F048FB0546052605E000BF44
:106CA00000F042FB401B0A2811D820684068C0074A
:106CB000F6D02068016821F00201016000F034FB89
:106CC00005460BE000F030FB401B0A2806D9606A3D
:106CD00040F40030606284F82060CCE720684068AF
:106CE0008007EFD4207E0128206801683DD021F084
:106CF00080010160607E01282068016838D021F0A1
:106D000040010160A07E01282068016833D021F095
:106D100020010160E07E0128206801682ED041F04A
:106D200010010160207F01282068016829D021F02E
:106D300008010160607F01282068016824D021F0EB
:106D400004010160D4E902010843D4E904121143AB
:106D500008436168491E08432168C86100206062D9
:106D6000012084F82000002070BD41F08001C0E7C0
:106D700041F04001C5E741F02001CAE721F01001D0
:106D8000CFE741F00801D4E741F00401D9E7000062
:106D900010B586B000210091019102910391006825
:106DA000174988422AD11748C16941F00071C16171
:106DB000C16901F000710491816941F004018161B0
:106DC0008069114C00F0040004904FF400600090C2
:106DD0006946204600F0A2F9A0140090022001901C
:106DE000032003906946204600F098F900221146DE
:106DF000142000F0EBFD142000F0DAFD06B010BD09
:106E0000006400400010024000080140704700008C
:106E10001FB5044600681449884223D1002120464A
:106E2000FFF782FD00281DD0104B114A002120469B
:106E3000FFF78BFD002815D1002210210D4800F02E
:106E40006EFA0B480168009102698DF80420074929
:106E50000DF10500FDF75CFC07480022694600685B
:106E600004F0EAFC1FBD0000006400406400002044
:106E7000240D0020000C01401400002070477047D2
:106E80007047000070B5044690F82000012804D037
:106E9000606A40F40020606218E0022084F820005C
:106EA0002068016821F00101016000F03DFA05460B
:106EB0000EE000BF00F038FA401B0A2808D9606ACB
:106EC00040F400306062052084F82000012070BD8D
:106ED00020684068C007EDD1606270BD70477047A0
:106EE0007047704770477047704710B590F8211091
:106EF0000022022905D00421816380F8202001208E
:106F000010BD01680B6823F00E030B6001680B686D
:106F100023F001030B6090F84030C46B012101FAAB
:106F200003F3636080F8211080F82020104610BD24
:106F30002DE9F05F90F821100024022903D00421EC
:106F40008163012485E001680A6822F00E020A606C
:106F500001680A6822F001020A603F4E3E4FB215F6
:106F6000DFF8F4C0DFF8F090DFF8ECA0DFF8E8B06D
:106F7000DFF8E4E00168783F13011502ACF1640C1E
:106F8000A9F15009AAF13C0AABF1280BAEF1140E9D
:106F90004FF48018B14227D9B9420ED0614512D0C2
:106FA00049451DD0514518D0594518D0714501D1DA
:106FB000424615E0294EB14201D1012210E0274E90
:106FC0001436B14201D110220AE0244E2836B142D3
:106FD00006D0224A3C32914201D11A4600E02A46AC
:106FE0001E49091F0A602BE0B94213D0614517D032
:106FF000494522D051451DD059451DD0714501D17B
:1070000042461AE0B14202D14FF0807215E0134EB1
:10701000B14201D1012210E0104E1436B14201D12B
:1070200010220AE00D4E2836B14206D00B4A3C32FF
:10703000914201D11A4600E02A46074980394A6048
:10704000012180F82110002180F82010416B01B14E
:1070500088472046BDE8F09F8000024008040240B7
:1070600030B560B11A4B026814219A4209D2194B0B
:107070001344B3FBF1F18900016417490AE00120D0
:1070800030BD134B5B421344B3FBF1F18900016443
:107090000F490839C163022180F82110136843F6B3
:1070A000F0718B43F0E901142143D0E902452C43F0
:1070B00021430469214344692143846921431943DD
:1070C000116000214163012242770177084630BDFB
:1070D00008040240F8FFFDBF0000024070B50446FE
:1070E00000F022F90546601C02D0044800780444F0
:1070F00000F01AF9401BA042FAD370BD48010020ED
:1071000070470000044910B50A68024202D00860C6
:10711000FFF7F6FF10BD0000140401402DE9F84F01
:10712000DFF8C8910024A9F1040B23460F2709F1C9
:10713000040AABF1040ED1E00125A54006EA0502E0
:10714000AA4276D1DFF8A8C14E68A6EB0C086645C6
:107150002BD00DDC032E34D005DC36B3012E19D034
:10716000022E2FD11BE0112E16D0122E2AD119E09B
:10717000B8F5881F19D006DCB8F5803F15D0B8F5F2
:10718000801F1FD111E0B8F5001F0ED0B8F5041F05
:1071900018D10AE0CB6815E0CB681B1D12E0CB6864
:1071A00008330FE0CB680C330CE08B682BB1012B5C
:1071B0004FF0080303D0456104E0042302E00561B9
:1071C00000E00023FF2A01D8064601E000F1040692
:1071D0004FEA840501D9A5F12005D6F8008007FA09
:1071E00005FC28EA0C0803FA05F548EA0508C6F884
:1071F00000804D68ED0070D53E4DAE6946F0010649
:10720000AE61AD6924F0030605F0010500953A4D25
:1072100006EB050CDCF80850A607360F07FA06F84F
:1072200025EA0805DFF8D480404503D14FF0000877
:1072300025E052E0DFF8C880404502D14FF0010858
:107240001DE0DFF8C080404502D14FF0020816E093
:10725000DFF8B480404502D14FF003080FE0DFF8BB
:10726000AC80404502D14FF0040808E0DFF8A08070
:10727000404502D14FF0050801E04FF0060808FA3A
:1072800006F848EA0508CCF808804D68D9F800608F
:10729000ED024D4601D5164300E096432E604D6841
:1072A000DAF80060AD02554601D5164300E096437A
:1072B0002E604D68DBF80060AD035D4601D51643D6
:1072C00000E096432E604D68DEF80060ED037546E1
:1072D00001D5164300E096432E60641C0A681646EA
:1072E000E2407FF429AFBDE8F88F000008040140B8
:1072F0000000111000100240000001400008014091
:10730000000C014000100140001401400018014031
:10731000001C01408068084000D0012070470AB17D
:10732000016170470904FBE701488068704700006D
:107330004801002070B5040025D094F83D000025D8
:1073400020B984F83C50204600F07EFA242084F8CE
:107350003D002068016821F001010160206801689A
:1073600041F4004101602068016821F4004101609E
:1073700000F026FC4D4A6168914201D84C4900E07A
:107380004C49884201D2012070BD4B492368B0FBB3
:10739000F1F15E6826F03F060E435E60636893423B
:1073A00006D94FF4967359434FF47A73B1FBF3F156
:1073B0002368491C1E6A26F03F0631431962616842
:1073C000914210D84900401EB0FBF1F2521CC2F3AA
:1073D0000B02042A01D2042022E0B0FBF1F0401C91
:1073E000C0F30B001CE0A268F2B301EBC10303EB96
:1073F0000116431EB3FBF6F35B1C43F480431B05ED
:1074000049D092B301EBC10202EB0111401EB0FB67
:10741000F1F0401CC0F30B0040F4804040F4004009
:107420002168CA694CF6FF739A431043C861D4E9D6
:10743000071001432068026822F0C0021143016076
:10744000D4E9030101432068826848F2FF339A437C
:1074500011438160D4E9050108432168CA6822F01C
:10746000FF021043C86001E00EE016E020680168EA
:1074700041F0010101602564202084F83D0025636E
:1074800084F83E50002070BD01EB4106431EB3FB63
:10749000F6F35B1CB3E70120C2E701EB4101401E9C
:1074A000B0FBF1F0401CC0F30B00B7E7A086010071
:1074B00080841E0000093D0040420F002DE9FF4F6F
:1074C00083B00025DDE910799A4693460446DDF83D
:1074D00048800095FFF728FF064694F83D002028D5
:1074E0007CD11923012288492046009601F042FEF2
:1074F0000028F5D194F83C0001286FD0012084F8D1
:107500003C0020680168C90703D1016841F001010E
:1075100001602068016821F400610160222084F884
:107520003D00402084F83E0025646762A4F82A905C
:10753000608D20857548E062CDE9008653465A4645
:107540002046049901F018FD00287CD1208DDFF839
:10755000C091202768B1012814D002282068016852
:107560001ED041F48061016020684169806900900B
:10757000BCE02068416981690091016841F40071B3
:107580000160B3E02068016821F48061016072B697
:107590002068416981690091016841F400710AE045
:1075A00041F40061016072B620684169816900910F
:1075B000016821F48061016062B697E0032865D814
:1075C00001280CD0022843464FF0000249462046CD
:1075D00000960BD001F0CEFDA8BB0CE091E0324646
:1075E0004146204601F06CFE68BB72E001F0C2FD2E
:1075F00048BB72B633E02068016821F48061016005
:1076000072B620680069616A0870606A401C606236
:10761000208D401E2085608D401E60853D4846F2CD
:10762000A8110068B0FBF1F0C0EBC00000EB8000D7
:107630000090401E009007D020684069C04340077A
:107640000DD50098F5E727E044F8305F6773A57320
:10765000206940F02000206162B625731CE020689C
:10766000016841F40071016020680069616A087076
:10767000606A401C6062218D491E2185618D491E12
:10768000618562B621680969017026E0324641468B
:10769000204601F015FE18B1012007B0BDE8F08FBB
:1076A00020680069616A0870606A401C6062208D11
:1076B000401E81B22185608D401E60852068426930
:1076C000D243520712D4032903D1016821F4806107
:1076D000016020680069616A0870606A401C60622D
:1076E000208D401E2085608D401E6085208D0028E5
:1076F0007FF464AF84F83D7084F83E5084F83C50C9
:10770000CBE70220C9E70000020010000000FFFFE5
:1077100004000100540100202DE9FF4F83B09A4678
:10772000DDE9119793460446DDF84080FFF7FCFD44
:10773000054694F83D0020287FD1192301224049B5
:107740002046009501F016FD002876D194F83C0003
:10775000012872D0012084F83C0020680168C90724
:1077600003D1016841F0010101602068016821F442
:1077700000610160212084F83D00402084F83E0033
:1077800000262664C4F82480A4F82A90608D208501
:107790002C48E062CDE9007553465A4620460499CC
:1077A00001F068FC70B930E02A463946204601F005
:1077B000BFFD58B1206C042804D12068016841F451
:1077C00000710160012007B0BDE8F08F606A216898
:1077D00000780861606A401C6062218D491E89B290
:1077E0002185628D521E628522685369DB435B07E7
:1077F0000BD469B100781061606A401C6062208D12
:10780000401E2085608D401E6085208D0028CBD1D4
:107810002A463946204601F081FC0028CAD154F896
:107820003D0B016841F400710160202004F81E093D
:10783000E67766770020C6E7FFE70220C3E700008F
:10784000020010000000FFFF10B586B0002100917B
:107850000191029103910068104988421BD1104C9C
:10786000A06940F00800A061A069694600F0080026
:1078700004904FF440600090122001900320039088
:107880000848FFF74BFCE06940F48000E061E069E4
:1078900000F48000049006B010BD000000580040C5
:1078A00000100240000C0140024881680278114437
:1078B0008160704748010020074810B5016841F019
:1078C00010010160032000F0A1F80F2000F006F87D
:1078D00000F050F8002010BD0020024030B50546F1
:1078E0001F4887B0C16941F00401C161C06906A9A0
:1078F00000F00400009001A800F042F90498B0B133
:1079000000F05EF940001749174AB0FBF1F1174843
:10791000491E0260416040F2E7320021C0E90321C4
:107920008160816100F0B4FE040003D015E000F036
:1079300047F9E8E70D4800F00DFF04000DD11E20C7
:1079400000F036F8102D07D2002229461E2000F044
:107950003DF80748056000E0012407B0204630BD2F
:107960000010024040420F0000080040480700207D
:107970004C0100200C4808B5816941F0010181618A
:10798000816901F001010091C16941F08051C1613B
:10799000C06900F0805000900448416821F0E06127
:1079A00041F00071416008BD00100240000001403C
:1079B000002809DB00F01F020121914040098000EE
:1079C00000F1E020C0F8001170470000F0B40E4B49
:1079D0001B680C46C3F30223C3F10705042D00D92D
:1079E0000425191D072901D2002300E0DB1E012612
:1079F00006FA05F1491E214099409E40761E164028
:107A00003143F0BC02F03CBE0CED00E0064900F052
:107A1000070208684FF6FF03184040EA0220034AB5
:107A200010430860704700000CED00E00000FA050C
:107A3000BFF34F8F05480168054A01F4E061114327
:107A40000160BFF34F8F00BFFDE700000CED00E0C9
:107A50000400FA052DE9F0470F46050061D0434EBA
:107A6000306800F00700B84209D2306820F0070003
:107A700038433060306800F00700B84251D12868C0
:107A80003B4C810712D5400703D5606840F4E060A5
:107A900060602878000703D5606840F4605060603B
:107AA0006068A96820F0F000084360602878C0078B
:107AB00028D06868012810D02168022810D08907D2
:107AC00000292EDA616821F0030101436160FFF7AC
:107AD0002BFC804641F288390DE021688903EFE7ED
:107AE0008901EDE7FFF720FCA0EB0801494502D929
:107AF0000320BDE8F0876068696800F00C00B0EB17
:107B0000810FEFD1306800F00700B8420BD9306820
:107B100020F0070038433060306800F00700B842BA
:107B200001D00120E5E72878400705D56068E968BD
:107B300020F4E060084360602878000706D560689C
:107B4000296920F4605040EAC100606000F058F8F4
:107B50006168084AC1F30311515CC84006490860D6
:107B600006480068FFF7BAFE0020C2E70020024086
:107B70000010024086FE0008540100204C01002045
:107B80000F2202600C4A536803F0030343605368FA
:107B900003F0F0038360536803F4E063C36052684A
:107BA0004FF4E06303EAD20202610448006800F087
:107BB00007000860704700000010024000200240EB
:107BC0000448054900684968044AC1F30221515C30
:107BD000C8407047540100200010024096FE000883
:107BE0000448054900684968044AC1F3C221515C50
:107BF000C8407047540100200010024096FE000863
:107C00000E4A51680E4801F00C03042B11D0082BCA
:107C10000FD10C48C1F38343C903C05C0AD5516836
:107C2000084AC1F34041921E515C054A5043B0FBE3
:107C3000F1F07047044948437047000000100240CB
:107C400000127A0076FE000800093D002DE9F84F89
:107C5000040070D02078C04DC00749D06868C0F3D8
:107C60008100012807D06868C0F38100022809D18B
:107C70006868C00306D52868800339D56068002885
:107C8000E7D035E06068B0F5803F0BD010B1B0F5BB
:107C9000A02F11D0286820F480302860286820F4B4
:107CA000802002E0286840F480302860606890B14D
:107CB000FFF73AFB06460AE0286840F48020286077
:107CC000F0E700BFFFF730FB801B642873D82868FB
:107CD0008003F7D50CE0FFF727FB064605E000BF61
:107CE000FFF722FB801B6428F0D828688003F7D4B4
:107CF00020789A4E80074FF001094FF0000839D5DF
:107D0000686810F00C0F07D06868C0F38100022883
:107D100009D16868C00306D42868800714D5206993
:107D2000012808D110E02069B0B1C6F80090FFF733
:107D3000FBFA074605E00AE1FFF7F6FAC01B022846
:107D4000C4D828688007F7D52868616920F0F80052
:107D500040EAC10028600DE0C6F80080FFF7E4FAB1
:107D6000074604E0FFF7E0FAC01B022823D8286882
:107D70008007F7D4207800072CD57948A169D9B1BC
:107D8000C0F80090FFF7D0FA074604E0FFF7CCFAFE
:107D9000C01B02280FD8686A8007F7D571484FF4D6
:107DA000FA510068B0FBF1F0009000BF0098411E4E
:107DB0000091FAD20EE080E0C0F80080FFF7B4FA3C
:107DC000074604E0FFF7B0FAC01B022875D8686ABE
:107DD0008007F7D42078400760D5E8690027C00005
:107DE00008D4E86940F08050E861E869012700F0B4
:107DF000805000905C480168C90513D4016883462F
:107E000041F480710160FFF78FFA824606E000BFFF
:107E1000FFF78AFAA0EB0A0064284ED8DBF80000CE
:107E2000C005F5D5E06801280AD008B1052813D0AF
:107E3000286A20F001002862286A20F0040002E08D
:107E4000286A40F001002862E06841F2883B98B15E
:107E5000FFF76AFA82460BE0286A40F004002862C5
:107E6000EEE700BFFFF760FAA0EB0A0159455AD8C8
:107E7000286A8007F6D50CE0FFF756FA824605E03F
:107E8000FFF752FAA0EB0A0159454CD8286A80073F
:107E9000F6D41FB1E86920F08050E861E06988B34A
:107EA0006968C1F38101022944D00228C6F86080C4
:107EB00004D0FFF739FA044638E034E0FFF734FA2B
:107EC000074604E0FFF730FAC01B02282BD82868C9
:107ED0008001F7D4206AB0F5803F05D16868A168B9
:107EE00020F4003008436860D4E908010843696859
:107EF00021F4741108436860C6F86090FFF714FA23
:107F0000044606E025E000BFFFF70EFA001B02283A
:107F100009D828688001F7D51BE000BFFFF704FAF5
:107F2000001B022802D90320BDE8F88F28688001D1
:107F3000F4D40EE00128F7D06868226A00F480319A
:107F4000914204D1616A00F47010884201D001208E
:107F5000EAE70020E8E7000000100240000042428B
:107F600080044242540100200070004070B50400BB
:107F700009D0606A002540B125616561A56294F869
:107F8000510040B10CE0012070BD6068B0F5827F07
:107F9000F4D0E561F2E784F85050204600F040F854
:107FA000022084F851002068016821F0400101603E
:107FB000A088218900F4827001F404410843A1895A
:107FC00001F400610843217C01F002010843217D96
:107FD00001F001010843218B01F400710843217F66
:107FE00001F03801084394F8201001F080010843A3
:107FF000218D01F40051084321680860A069042123
:1080000001EA1040216848602068C16921F40061DC
:10801000C1616565012084F85100002070BD000039
:108020002DE9F04186B00024009401940294039459
:108030000646454D036845480222032180274FF03C
:108040001008AB4231D1836943F480538361836963
:1080500003F480530493836943F0040383618069CC
:108060003B4D00F004000490A020CDE900020391F4
:1080700069462846FFF752F84020CDE900046946DA
:1080800028460294FFF74AF8334D3248C5E90247C3
:108090002C616C61AC61EC61C5E9000828464BE0DD
:1080A000B5646E6206B0BDE8F0812C4DAB42F9D1EB
:1080B000C36943F48043C361C36903F480430493F9
:1080C000836943F0080383618069254D00F008004F
:1080D00004904FF42040CDE9000203916946284600
:1080E000FFF71CF84FF48040CDE9000469462846AC
:1080F0000294FFF713F8184D164844351430C5E9BB
:108100000004C5E902472C616C61AC612846EC6152
:10811000FEF7A6FF08B1FEF769F9F5646E620E4D31
:108120000C4888352830C5E902472C616C61AC6188
:10813000EC61C5E900082846FEF792FF0028AFD0A1
:10814000FEF754F9ACE70000003001400010024097
:108150000008014030000240440E0020003800407A
:10816000000C01402DE9F84F044690F851001D46DF
:1081700016460F46012838D160684FF00408B0F564
:10818000827F01D1A06830B3FFF7CEF88246002F7E
:1081900075D0002E73D094F85000012825D04FF0F0
:1081A000010984F8509084F851804FF00008C4F819
:1081B0005480A763A687E687C4F83080A4F834808B
:1081C000A4F83680C4F84080C4F84480A068B0F5B4
:1081D000004F0CD015E084F85180009313460A46F6
:1081E000204600F01CF9BDE8F88F0220FBE720686C
:1081F000016821F0400101602068016821F480419C
:10820000016020680168490603D4016841F040011B
:108210000160E068C0B134E020688168C90709D016
:10822000007BA16B0870A06B401CA063E08F401E18
:10823000E08709E0FFF778F8A0EB0A00A84202D334
:10824000681C01D032E085B3E08F0028E4D11BE048
:1082500020688168C90709D0C068A16B0880A06B3D
:10826000801CA063E08F401EE0870AE0FFF75CF807
:10827000A0EB0A00A84203D3681C02D016E012E06B
:108280009DB1E08F0028E3D152462946204601F0F7
:1082900069FC08B12020606584F8519084F8508012
:1082A000606D00289FD001209DE7FFE784F8519082
:1082B00084F85080032096E72DE9F84F984616463B
:1082C0008A460446FFF730F8814694F851000128A9
:1082D0001ED1BAF1000F73D0002E71D094F8500067
:1082E000012815D0012784F85070032084F851002C
:1082F00000256565C4F830A0A686E686A563A58737
:10830000E58765642564A068B0F5004F03D00CE0F4
:108310000220BDE8F88F2068016821F0400101606B
:108320002068016841F480410160206801684906C5
:1083300003D4016841F040010160E068B0F5006FCE
:10834000606803D048B3012E27D047E008B1012E62
:108350001FD1206B21680088C86006E02068816812
:10836000890709D5216B0988C160206B801C2063B7
:10837000E08E401EE0860CE0FEF7D6FFA0EB090180
:10838000414503D3B8F1FF3F03D035E0B8F1000F0A
:1083900032D0E08E0028E1D123E0206B2168007804
:1083A000087306E02068816889070AD5216B09787F
:1083B0000173206B401C2063E08E401EE0860DE0C0
:1083C0002BE0FEF7B1FFA0EB0901414503D3B8F163
:1083D000FF3F03D010E0B8F1000F0DD0E08E002871
:1083E000E0D14A464146204601F0EAFB08B1202090
:1083F0006065A06830B109E084F8517084F850508D
:10840000032086E72068C1688068009084F8517076
:1084100004F8505F60680028F3D0012079E72DE967
:10842000FF4F81B01D46934604464FF001090E9E52
:10843000FEF77AFF074694F851006168012806D0DC
:10844000B1F5827F3CD1A168C9BB042838D102981C
:10845000002871D0BBF1000FFBD0002DF9D094F8AB
:10846000500001282CD04FF0010A84F850A094F855
:108470005100042802D0052084F851004FF0000874
:10848000C4F85480C4F838B0E587A5870299216301
:10849000E586A586C4F84080C4F844802068016859
:1084A000490603D4016841F040010160E068B0F57D
:1084B000006F606808D0F0B3012D49D081E0FFE77C
:1084C000022005B0BDE8F08F08B1012D39D1206B35
:1084D00021680088C860206B801C2063E08E401EED
:1084E000E0862EE02068816889070FD5E18E69B1AA
:1084F000B9F1010F0AD1216B0988C160206B801C82
:108500002063E08E401EE0864FF0000920688168FD
:10851000C9070CD0E18F51B1C068A16B0880A06B76
:10852000801CA063E08F401EE0874FF00109FEF73A
:10853000FBFEC01B01E00BE067E0B04201D3701C02
:1085400050D1E08E0028CDD1E08F0028CAD13EE086
:10855000206B216800780873206B401C2063E08E3C
:10856000401EE0862DE02068816889070FD5E18EE6
:1085700069B1B9F1010F0AD1216B09780173206B40
:10858000401C2063E08E401EE0864FF0000920680A
:108590008168C9070CD0E18F51B1C068A16B087028
:1085A000A06B401CA063E08F401EE0874FF00109E4
:1085B000FEF7BAFEC01BB04202D3701C01D011E01E
:1085C00086B1E08E0028CED1E08F0028CBD13A468C
:1085D0003146204601F0F4FA50B12020606584F85D
:1085E000508012E084F851A084F85080032068E79E
:1085F000A06818B92068C1688068009084F851A00C
:1086000084F85080606D0028F1D0012059E7704750
:108610007047000070B590F83C20012A2CD001244E
:1086200080F83C40022280F83D2003685A689D682B
:1086300022F070060A6832435A60104B02689A4270
:108640000ED00F4B9A420BD0B2F1804F08D00D4B99
:108650009A4205D00C4B9A4202D00C4B9A4204D15C
:10866000496825F080031943916080F83D4000215E
:1086700080F83C10084670BD022070BD002C0140FF
:10868000003401400004004000080040000C00409D
:1086900010B5040003D094F83D0010B107E00120AC
:1086A00010BD002084F83C00204600F01FF8022096
:1086B00084F83D00211D206801F018FE012084F897
:1086C000460084F83E0084F83F0084F8400084F8B7
:1086D000410084F8420084F8430084F8440084F8A0
:1086E000450084F83D00002010BD000038B5054667
:1086F00000681549154C88420FD1E06940F0100020
:10870000E061E069002200F0100000901146362080
:10871000FFF75CF93620FFF74BF90D4928688842CE
:1087200011D1E06940F02000E061E069002200F032
:10873000200000900F213720FFF748F9BDE83840AE
:108740003720FFF735B938BD001000400010024057
:108750000014004090F83D10012901D0012070471D
:10876000022180F83D100168CA6842F00102CA6027
:1087700000680E4988420ED00D4988420BD0B0F1F6
:10878000804F08D00B49884205D00B49884202D05F
:108790000A49884204D1816801F00701062903D003
:1087A000016841F00101016000207047002C014088
:1087B000003401400004004000080040000C00406C
:1087C00070472DE9F04104460068C66805694FF01E
:1087D0000007A90713D5B10711D5F91E01610120C2
:1087E0002077206880698007204602D0FFF7E8FFE5
:1087F00004E000F07EF8204600F07CF82777680758
:1088000016D5700714D521686FF0040008610220A6
:1088100020772068806910F4407F204602D0FFF75F
:10882000CFFF04E000F065F8204600F063F82777FA
:10883000280715D5300713D521686FF008000861A7
:10884000042020772068C0698007204602D0FFF707
:10885000B7FF04E000F04DF8204600F04BF8277712
:10886000E80616D5F00614D521686FF010000861EF
:10887000082020772068C06910F4407F204602D08D
:10888000FFF79EFF04E000F034F8204600F032F8D5
:108890002777E80708D0F00706D021686FF00100BD
:1088A0000861204600F028F8280608D5300606D5CD
:1088B00021686FF0800008612046FFF7A8FE680677
:1088C00008D5700606D521686FF040000861204683
:1088D00000F01CF8A8060AD5B00608D521686FF08C
:1088E000200008612046BDE8F041FFF791BEBDE8D9
:1088F000F08170477047000000680349884201D149
:10890000FEF7D2BF70470000000800407047704774
:1089100070470000F8B5016804460868CA684B69EA
:1089200010F00F0F4FF0000559D003F0010602F4CC
:108930009077374365D0C10705D0D10503D5616C69
:1089400041F001016164410705D5D90703D0616C8D
:1089500041F002016164810705D5D90703D0616C3C
:1089600041F004016164010707D502F020013143A1
:1089700003D0616C41F008016164616C00293AD058
:10898000800604D5900602D5204601F032FD20680D
:108990004069616CC0F38010090700D460B32046C1
:1089A00001F000FD20684069400621D520681430A0
:1089B00050E8001F21F0400140E80012002AF5D1E4
:1089C000E06BA8B16D494163E06BFEF7B1FA002896
:1089D00011D0E06B416B01B0BDE8F0400847830661
:1089E0000FD593060DD52046BDE8F84001F001BD36
:1089F0002046FFF78DFFF8BD2046FFF789FF65642D
:108A0000F8BD266B2023012E7CD1C6067AD5D6066A
:108A100078D508684868009048694FF0020640061B
:108A200040D5E16B086840680004000CE8D0A28DD6
:108A30008242E5D9E085886920282DD020680C3055
:108A400050E8001F21F4807140E80012002AF5D19F
:108A50002068143050E8001F21F0010140E80012A6
:108A6000002AF5D12068143050E8001F21F04001A1
:108A700040E80012002AF5D184F8423025632068CE
:108A80000C3050E8001F21F0100140E80012002ACD
:108A9000F5D1E06BFEF729FA6663A08DE18D401AEF
:108AA00081B22AE0A08DE18D401A81B2E08D0028CC
:108AB000A6D00029A4D022680C3252E8000F20F47E
:108AC000907042E80007002FF5D12068143050E87C
:108AD000002F22F0010240E80027002FF5D184F892
:108AE0004230256320680C3050E8002F22F010023D
:108AF00040E80023002BF5D166632046FFF707FF0F
:108B0000F8BDFFE705062BD5150629D594F84100D9
:108B10002128F5D1A068B0F5805F01D12069B0B1FE
:108B2000206A411C2162216800784860E08C401E68
:108B30000004000CE084E3D12068C16821F08001CA
:108B4000C1602068C16841F04001C160D8E7206A77
:108B50000088C0F308004860206A801C2062E5E7B6
:108B60004006CDD55006CBD5CA68204622F040023B
:108B7000CA6084F8413000F0B9F9C1E795A3000854
:108B800070B5040004D094F84100002510B106E04F
:108B9000012070BD84F84050204600F023F82420C6
:108BA00084F841002068C16821F40051C16020466A
:108BB00001F080FC2068016921F490410161206886
:108BC000416921F02A0141612068C16841F40051E6
:108BD000C1606564202084F8410084F84200656328
:108BE000002070BDF0B585B000240094019402947B
:108BF0000394624DD0F800C0614802210322614B0A
:108C00000426AC452DD1C56945F48015C561C569FB
:108C100005F480150495856945F010058561856921
:108C200005F010050495856945F02005856180698A
:108C3000039200F020000490C802CDE900016946CB
:108C40001846FEF76BFACDE9006469464E48029477
:108C5000FEF764FA002211463520FEF7B7FE3520F4
:108C60002AE04B4DDFF824E12F15F44528D1836924
:108C700043F480438361836903F4804304938369ED
:108C800043F0040383618069039200F004000490C0
:108C90006815CDE9000169462846FEF73FFACDE99F
:108CA0000074694628460294FEF738FA00221146FD
:108CB0002520FEF78BFE2520FEF77AFE05B0F0BDDD
:108CC000DFF8D0E0F44525D1C36943F40033C36134
:108CD000C36903F400330493836943F0040383619D
:108CE0008069CDE9006100F00400CDE90320694608
:108CF0002846FEF713FA0820CDE900046946284605
:108D00000294FEF70BFA002211462620FEF75EFEC3
:108D10002620D1E7204DAC45D0D1C56945F480254A
:108D2000C561C56905F480250495856945F0100580
:108D30008561806900F0100004901848456825F0AE
:108D4000300545F0E06545F010054560CDE900715E
:108D5000039269461D461846FEF7E0F94FF400609D
:108D6000CDE90004694628460294FEF7D7F90022AF
:108D700011462720FEF72AFE27209DE700500040DD
:108D80000010024000100140001401400038014072
:108D9000000801400044004000480040000001403D
:108DA00090F84230202B01D00220704721B11AB137
:108DB0000023036301F0DABB012070472DE9F04185
:108DC0000068194988422DD1184C00272146A07807
:108DD000497818B9AC2901D0A7701BE0144E315462
:108DE000401CC0B2A070052814D3B578A84211D396
:108DF0002946304602F030F8711911F8011C814201
:108E000004D12946304602F07DFEE5E709A0FBF7D4
:108E1000D9FAE1E7BDE8F04104490122491C0A48BA
:108E2000FFF7BEBFBDE8F081005000400000002009
:108E3000C0010020436865636B73756D20657272B5
:108E40006F720D0A00000000280600202DE9F8438B
:108E5000044690F84100984616460D46202802D058
:108E60000220BDE8F88385B17EB100206064212036
:108E700084F84100FEF758FAA6848146E684A0688B
:108E80002027B0F5805F02D003E00120E9E72069E8
:108E900010B12E4600250EE000260CE08021204671
:108EA00001F07FFBA8B9C6B116F8010B2168486034
:108EB000E08C401EE084E08C4B464FF00002CDF881
:108EC00000800028EAD14FF04001204601F069FB04
:108ED00040B184F841700320C3E735F8020BC0F3BA
:108EE0000800E3E784F841700020BAE7704700000B
:108EF000012211030148FEF712BA0000000C0140E4
:108F000000224FF480510148FEF709BA000C0140DD
:108F100010B5FFF7F5FF052003F034FC03F024FC47
:108F20000446FFF7E5FF204610BD000001A0FBF757
:108F300049FAFBE7486172644661756C745F486189
:108F40006E646C65720D0A0001684A69D24352056D
:108F50000FD46FF480624A61002140F8301F202254
:108F600042738173026942F00402026101730120BD
:108F700070470020704700002DE9F84F0446006854
:108F800089460B9D01689846174641F4806101604F
:108F90002068016841F48071016000954FF0011B69
:108FA0000022594620460A9B00F0E4F84FF4007A6C
:108FB00040B120680068C00501D5C4F840A0032076
:108FC000BDE8F88F216809F0FE0008612B462849AA
:108FD00020460A9A00F016F9F0BB206841698069C2
:108FE00000902A4620460A9900F0A2F940B1206C70
:108FF00004283AD12068016841F40071016034E02E
:10900000FEB2B8F1010F09D02168380A08612A467A
:1090100020460A9900F08CF90028E8D12068066102
:109020002A4620460A9900F083F90028DFD12068FB
:10903000016841F480710160009500225946204684
:109040000A9B00F097F80028B3D1216809F0FF00CF
:1090500040F00100086100E007E02B46044920468B
:109060000A9A00F0CFF80028AAD00120A8E7000053
:10907000020001002DE9F843044600680D46DDE9D1
:10908000089701689846164641F4807101604B4686
:1090900000224FF001112046009700F06BF848B114
:1090A00020680068C00502D54FF4007020640320DA
:1090B000BDE8F883216805F0FE0008613B464A469A
:1090C0001549204600F09EF888B9206841698069FA
:1090D00000903A464946204600F02AF948B1206CF3
:1090E000042804D12068016841F400710160012066
:1090F000DEE7F5B2B8F1010F09D02168300A086146
:109100003A464946204600F013F90028E7D1206886
:1091100005610020CCE700000200010070B5164692
:109120000D4604461EE02046FFF70EFF08B1012061
:1091300070BD681C16D0FEF7F7F8801BA84200D857
:1091400085B920684069C04340070BD5002044F82A
:10915000300F20216173A073216941F0200121614A
:109160002073E4E720684069C0434007DBD4002057
:1091700070BD00002DE9F047984617460D4604469D
:10918000C1F30746DDF820902AE000BFB8F1FF3FA9
:1091900026D0FEF7C9F8A0EB0901414502D8B8F185
:1091A000000F1DD12068012E16D0806925EA00002D
:1091B0000004000C12D00020B84211D1002044F865
:1091C000300F20216173A073216941F020012161DA
:1091D00020730120BDE8F0874069E7E70120EBE755
:1091E0002068012E0AD0806925EA00000004000CE6
:1091F00006D00020B842C9D00020EBE74069F3E771
:109200000120F7E72DE9F047984616460D4604463B
:109210004FF000094FF0200AC1F3074723E0206810
:109220004069C043400515D42068016841F40071CD
:10923000016021686FF480604861C4F8309084F860
:109240003DA084F83E90216C41F00401216484F833
:109250003C9021E0701C06D0FEF766F8A0EB0800F9
:10926000B04203D816B1012F1FD021E02068012F92
:1092700015D0806925EA00000004000C18D000BF5A
:1092800044F8309F84F80DA084F80E90216941F0D5
:109290002001216184F80C900120BDE8F08740692D
:1092A00025EA00000004000CEAD12068406901E0D2
:1092B0002068806925EA00000004000CAFD1ECE7CB
:1092C0002DE9F041002590460E460446202728E06F
:1092D0004069C043C0060CD454F8301B6FF0100036
:1092E000486144F810596777A577206A206225778E
:1092F00014E0FEF719F8A0EB0800B04200D886B9D8
:1093000020684069C04340060BD544F8305F67735E
:10931000A573206940F02000206125730120BDE87D
:10932000F08120684169C9434906D1D40020F6E79D
:1093300070B516460D4604461EE02046FFF704FEB3
:1093400008B1012070BD681C16D0FDF7EDFF801B31
:10935000A84200D885B920684069C04300060BD5F3
:10936000002044F8300F20216173A073216941F07F
:10937000200121612073E4E720684069C0430006B2
:10938000DBD4002070BD0000054C4FF47A7501223B
:1093900010212046FDF7C3FF284602F0E3F9F6E767
:1093A000000C01403EB50024114800940194029441
:1093B0000E498460016001250573047505614FF451
:1093C00060214460C161FDF795F808B1FDF70EF822
:1093D0000A20CDE90005694602940548FDF708F822
:1093E000002801D0FDF702F83EBD00000024014036
:1093F0009007002010B522489EB0012444722149F4
:1094000081632149C1632149016421A000681C9046
:109410001B4801F04DF938210EA8FBF7F8F9382266
:109420001C496846FBF7B9F9154A0221684601F064
:10943000AFFA134A0121042001F047FB09218DF8FE
:109440000410022200208DF807008DF805208DF809
:109450003C108DF806408DF840008DF83D208DF8C9
:1094600041008DF83E40064A0221684601F038FC72
:10947000034A02211CA801F09FFB1EB010BD000092
:10948000C00700202DC8000855C8000847AE0008D6
:10949000000100003CFE000830B51C488BB01A49A2
:1094A000016006210024C0E901144FF4E021C0E965
:1094B00003414FF40011416104760125457685761C
:1094C000C47604774477FDF7CFFB08B1FCF78EFF35
:1094D00003940E200494CDE90850CDE90645059487
:1094E00000940194029469460848FDF7A5F908B173
:1094F000FCF77CFF0548FDF7C5FC02210348FDF79A
:1095000015F90BB030BD000000640040E40C0020F1
:10951000114808B5416941F00101416140690022EB
:1095200000F00100009011460D20FEF74FFA0D20CB
:10953000FEF73EFA002202210E20FEF747FA0E2027
:10954000FEF736FA002202210F20FEF73FFABDE8AF
:1095500008400F20FEF72CBA0010024030B5A1B031
:1095600000241D941DA81E9402F094F9224908605D
:109570001F941FA8209402F08DF92049204D15ACAE
:10958000086005F108000FC884E80F00002115A845
:1095900002F0F4F81B4C1C2205F11801E06168464A
:1095A000FBF7FBF80021684602F0D6F93435E0609D
:1095B00095E80F0019AD85E80F00002119A802F009
:1095C000DDF811491C2208600D4907A84431FBF75A
:1095D000E4F8002107A802F0BFF9094920611C2224
:1095E00060310EA8FBF7D9F800210EA802F0B4F9FB
:1095F000606121B030BD0000100000200800002094
:1096000064DD000818000020140000202DE9F04F50
:1096100085B0002449480094019402940394816920
:1096200041F020018161816901F02001049181698B
:1096300041F004018161816901F0040104918169B3
:1096400041F008018161816901F00801049181699B
:1096500041F0100181618069DFF8E4A000F01000A2
:10966000049000224FF4A0715046FDF758FE4FF4CD
:109670000057002239465046FDF751FEDFF8C4B0CE
:109680004FF48C78002241465846FDF748FE41F2DF
:109690001829002249462C48FDF741FE00220821E6
:1096A0005046FDF73CFE0125CDE9005469462648A9
:1096B0000294FDF733FD08200226CDE90005CDE92F
:1096C000024669465046FDF729FD042000901F48D8
:1096D000CDE9010569461C48FDF720FD4FF4A8704F
:1096E000CDE90005CDE9024669465046FDF716FD75
:1096F00000970396CDE9015469465046FDF70EFDEB
:10970000CDF800800396CDE9015469465846FDF72F
:1097100005FDCDF800900396CDE9015469460A484D
:10972000FDF7FCFC002211460820FEF74FF9082047
:10973000FEF73EF905B0BDE8F08F000000100240D2
:109740000010014000080140000C01400000211001
:109750000D4810B50B4901600C49416000214FF4E0
:1097600080428160C0E9031241618161C16101628F
:10977000FDF7E0FD002803D0BDE81040FCF736BE41
:1097800010BD000000580040400D0020A0860100E0
:109790000F4810B50D4901604FF4827141600021FE
:1097A0008160C1604FF400720161C0E90512C161BE
:1097B0000162416281620A21C162FEF7D7FB002883
:1097C00003D0BDE81040FCF711BE10BD00300140D1
:1097D000940D0020104810B50E4901604FF48271BD
:1097E0004160002102228160C0E90312012242612E
:1097F0005202C0E906210162416281620A21C1620E
:10980000FEF7B4FB002803D0BDE81040FCF7EEBD26
:1098100010BD000000380040EC0D00201CB50024F5
:109820000F4800940D490194016041F61F41C0E9C1
:10983000011442F20F71C16080218161FEF728FF9F
:1098400008B1FCF7D3FD0094694605480194FEF782
:10985000E1FE002801D0FCF7C9FD1CBD001000404E
:10986000100F00201CB500240F4800940D490194EE
:10987000016041F61F41C0E901146321C1608021EC
:109880008161FEF705FF08B1FCF7B0FD0094694661
:1098900005480194FEF7BEFE002801D0FCF7A6FDA6
:1098A0001CBD000000140040580F00200C4810B5EB
:1098B0000A4901604FF4E1314160002181600C22CE
:1098C000C160C0E904128161C161FFF759F9002844
:1098D00003D0BDE81040FCF789BD10BD005000402A
:1098E000280600200C4810B50A4901604FF4E13108
:1098F0004160002181600C22C160C0E904128161D5
:10990000C161FFF73DF9002803D0BDE81040FCF726
:109910006DBD10BD00380140000700200C4810B597
:109920000A4901604FF4E1314160002181600C225D
:10993000C160C0E904128161C161FFF721F900280B
:1099400003D0BDE81040FCF751BD10BD00440040FD
:10995000700600200C4810B50A4901604FF4E1314F
:109960004160002181600C22C160C0E90412816164
:10997000C161FFF705F9002803D0BDE81040FCF7EE
:1099800035BD10BD00480040B8060020FEE70000CD
:109990002DE9F0410B4C0F464FF0FF351646294696
:1099A000206801F0A7FFB2B22B4639460648FFF700
:1099B0004DFA002804D12068BDE8F04101F072BFE3
:1099C000BDE8F0811000002028060020FEE700001E
:1099D00000254C4FDFF83081DFF830A1DFF83091FF
:1099E0002C462E466FF00B0B04213846FDF792FCF7
:1099F000062E0ED2DFE806F0030812225683002856
:109A000079D10126002476E0641C14F0FF0472D0A2
:109A100008B100266FE0022600256CE001280AD07C
:109A200040F6B8303235854265D3032639A000BFF1
:109A300002F0B4FE5FE000263AA0F9E7464630782F
:109A400098B33BA002F0AAFE00224FF480713C487C
:109A5000FDF765FC002208213948FDF760FC002273
:109A600040213748FDF75BFC002208213846FDF70E
:109A700056FC0020307001F08FFB04F01FF85146B7
:109A800004F030F8594604F02FF92E4904F02AF872
:109A9000C9F8000004260A2001F064FE04213846BB
:109AA000FDF738FC012822D025E0FFE7012208213C
:109AB0003846FDF734FC0120307023A002F06EFE22
:109AC00001F06AFB03F0FAFF514604F00BF8594627
:109AD00004F00AF91B4904F005F8C9F800000A204F
